:020000040800F2
:100000000826002069020008A1350008B92A000866
:100010008D33000867070008493C00080000000015
:10002000000000000000000000000000D1010008F6
:100030008D0700080000000015020008EF350008D9
:10004000830200088302000883020008830200087C
:10005000830200088302000883020008830200086C
:10006000830200088302000883020008830200085C
:10007000830200088302000883020008830200084C
:100080006D0700087D07000883020008830200084E
:10009000830200088302000883020008830200082C
:1000A000830200088302000883020008830200081C
:1000B000830200088302000883020008830200080C
:1000C00083020008830200088302000883020008FC
:1000D00083020008393C00088302000883020008FC
:1000E00083020008830200088302000800F002F87F
:1000F00000F05FF80AA090E8000C82448344AAF163
:100100000107DA4501D100F054F8AFF2090EBAE860
:100110000F0013F0010F18BFFB1A43F0010318473B
:1001200038710000587100000A444FF0000C10F8BC
:10013000013B13F0070408BF10F8014B1D1108BF65
:1001400010F8015B641E05D010F8016B641E01F805
:10015000016BF9D113F0080F1EBF10F8014BAD1C55
:100160000C1B09D16D1E58BF01F801CBFAD505E073
:1001700014F8016B01F8016B6D1EF9D59142D6D3CD
:10018000704700000023002400250026103A28BFF5
:1001900078C1FBD8520728BF30C148BF0B607047F9
:1001A000642900F0C980002070471FB51FBD10B53D
:1001B00010BD00F071FA1146FFF7F7FF03F0D0FE13
:1001C00000F08FFA03B4FFF7F2FF03BC00F092FADD
:1001D000224B19680868B0E8F00F80F30988BFF374
:1001E0006F8F4FF0000080F311884EF00D0E7047B6
:1001F0000000000006480068006880F3088862B6C6
:1002000061B6BFF34F8FBFF36F8F00DF00BF00BF3A
:1002100008ED00E0EFF30980BFF36F8F0F4B1A6812
:1002200020E9F00F106008B54FF0500080F31188FE
:10023000BFF34F8FBFF36F8F05F0F2FA4FF000005E
:1002400080F31188BDE8084019680868B0E8F00F2D
:1002500080F30988BFF36F8F704700BFD400002080
:10026000EFF30580704700000948804709480047C0
:10027000FEE7FEE7FEE7FEE7FEE7FEE7FEE7FEE756
:10028000FEE7FEE704480549054A064B70470000B3
:1002900053360008ED000008082000200826002042
:1002A00008220020082200200FB41CB5074B06AA24
:1002B0007B4469460090059800F079F90020694672
:1002C00000F088F91CBC5DF814FB0000210300005D
:1002D0002DE9F0410E460446002020622046E168E8
:1002E000884730B3252805D0D4E901219047206AFA
:1002F000401CF2E7E168204600278847050018D037
:10030000A5F14100192802D820354FF40067324684
:10031000294620462760FFF743FF40B1012804D05B
:10032000F61D26F007060836D8E7361DD6E728461C
:10033000DAE7206ABDE8F0812DE9F04106460024A5
:1003400010687529314616A510D0AFF3008000283B
:1003500002DA404213A507E031688A0701D512A5E9
:1003600002E0490704D511A5012401E0AFF30080A4
:1003700000210A2206F1240709E0B0FBF2FCB0FBE1
:10038000F2F302FB1C00303078541846491C002858
:10039000F3D123462A463046BDE8F04100F0A9B823
:1003A000000000002D0000002B00000020000000D5
:1003B00010B5431C02E010F8011B71B18107FAD19E
:1003C0004FF0013202C88C1A8C4314EAC211F9D0E2
:1003D000C01A0A0603D0C01E10BDC01A10BD0A0400
:1003E00001D0801E10BD0902FCD0401E10BD032AA2
:1003F00040F2308010F0030C00F0158011F8013B42
:10040000BCF1020F624498BF11F801CB00F8013B28
:1004100038BF11F8013BA2F1040298BF00F801CBEC
:1004200038BF00F8013B11F0030300F0D880083A10
:10043000C0F0088051F8043B083A51F804CBA0E81A
:100440000810F5E7121D5CBF51F8043B40F8043B6F
:10045000AFF30080D20724BF11F8013B11F801CBA4
:1004600048BF11F8012B24BF00F8013B00F801CB75
:1004700048BF00F8012B704702F0FF0343EA032254
:1004800042EA024200F0DFB84FF0000200B5134626
:1004900094469646203922BFA0E80C50A0E80C50A4
:1004A000B1F12001BFF4F7AF090728BFA0E80C5055
:1004B00048BF0CC05DF804EB890028BF40F8042B4E
:1004C00008BF704748BF20F8022B11F0804F18BFBB
:1004D00000F8012B704770477047704710B500F067
:1004E000D3F8006810BD10B5044600F0CDF80460E4
:1004F00010BD2DE9F0470D4699469246044600F19D
:1005000024080168880604D5E06921F01001216003
:1005100000E00120A84201DD471B00E00027A1699F
:100520007A1902EB0900081AA0612078C00602D4EB
:100530002046AFF30080002608E0D4E901211AF834
:1005400006009047206A401C761C20624E45F4DB72
:100550002078C0060AD52046AFF3008006E0D4E933
:10056000012130209047206A401C2062381EA7F1EC
:100570000107F4DC07E0D4E9012118F805009047F1
:10058000206A401C2062281EA5F10105F3DC2046EC
:10059000AFF300802078000602D50220BDE8F08786
:1005A0000120FBE701694A1C02610878704700B529
:1005B0008FB0CDE901310021059105497944CDE99C
:1005C000031011466846FFF783FE0FB000BD000020
:1005D000E5FFFFFF0A6802F8010B0A60704710B5DB
:1005E000203AC0F00B80B1E81850203AA0E818502B
:1005F000B1E81850A0E81850BFF4F5AF5FEA027CEC
:1006000024BFB1E81850A0E8185044BF18C918C05A
:10061000BDE810405FEA827C24BF51F8043B40F8FB
:10062000043B08BF7047D20728BF31F8023B48BFE0
:1006300011F8012B28BF20F8023B48BF00F8012B1E
:1006400070474FF000020429C0F0128010F0030C34
:100650003FF41CAFCCF1040CBCF1020F18BF00F842
:10066000012BA8BF20F8022BA1EB0C01FFF70EBF56
:100670005FEAC17C24BF00F8012B00F8012B48BFC2
:1006800000F8012B7047000000487047A41F0020AD
:1006900000487047A41F00207546FFF7F9FFAE46DB
:1006A00005006946534620F00700854618B020B57E
:1006B000FFF7E8FDBDE820404FF000064FF00007CF
:1006C0004FF000084FF0000B21F00701AC46ACE8FA
:1006D000C009ACE8C009ACE8C009ACE8C0098D4667
:1006E000704710B50446AFF300802046BDE81040C7
:1006F000FFF768BD01491820ABBEFEE726000200E7
:100700007047000070B5044601251049606806F086
:1007100037FB04D90E49606806F032FA04D802F0BB
:10072000D3FE0125284670BD0849206806F028FB45
:1007300004D90749206806F023FA04D802F0C4FE61
:1007400001252846EFE70020EDE700000000704299
:10075000000070C205F0ACF800BF04F02FFC32209E
:1007600003F014FCF9E700BFFEE7000010B50248F3
:1007700000F0BCF810BD0000EC01002010B50248EC
:1007800000F0B4F810BD0000A80100207047000080
:100790002DE9F041044611480068C56A0021204651
:1007A00006F0EEF900D200244FF07E51204606F00C
:1007B000E7FA01D24FF07E54681C06F0CDF980466E
:1007C000214606F011FA07464FF07C5106F03AF840
:1007D000064606F089F9BDE8F081000030020020ED
:1007E00072B600BFFEE70146002291F82100022800
:1007F00008D00420886300BF002081F8200000BFDB
:10080000012070470868006820F00E000B6818602F
:100810000868006820F001000B68186091F840300B
:1008200001209840CB6B5860012081F8210000BF67
:10083000002081F8200000BF1046E2E770B50446B2
:10084000002594F82100022803D00420A06301258C
:1008500048E02068006820F00E00216808602068E9
:10086000006820F00100216808601F492068884264
:1008700001D1012026E01C4914312068884201D1B1
:1008800010201FE0184928312068884201D18015C6
:1008900018E015493C312068884201D1801411E0EC
:1008A000114950312068884202D14FF4803009E06C
:1008B0000D4964312068884202D14FF4801001E074
:1008C0004FF08070084908394860012084F8210001
:1008D00000BF002084F8200000BF606B10B12046EC
:1008E000616B8847284670BD0800024070B5044619
:1008F000E06B05682068066894F840100420884082
:100900002840002846D006F00400002842D0206885
:10091000006800F0200028B92068006820F004007A
:100920002168086057492068884201D1042027E0E7
:10093000544914312068884201D1402020E05149B7
:1009400028312068884201D1001519E04D493C3119
:100950002068884202D14FF4804011E0494950316B
:100960002068884202D14FF4802009E04549643173
:100970002068884202D14FF4800001E04FF080608F
:10098000404908394860E06A00287AD02046E16A88
:10099000884776E094F84010022088402840A0B3B1
:1009A00006F0020088B32068006800F0200040B91B
:1009B0002068006820F00A0021680860012084F89F
:1009C000210030492068884201D1022028E02D49C9
:1009D00014312068884201D1202021E029492831A2
:1009E0002068884201D140151AE026493C31206830
:1009F000884202D14FF4005012E022495031206861
:100A0000884203D14FF400300AE017E01D496431F9
:100A10002068884202D14FF4001001E04FF00070CE
:100A200018490839486000BF002084F8200000BF42
:100A3000A06A30B32046A16A884722E094F84010AB
:100A4000082088402840E0B106F00800C8B12068BE
:100A5000006820F00E002168086094F84010012022
:100A60008840E16B48600120A06384F8210000BF4A
:100A7000002084F8200000BF206B10B12046216BBD
:100A8000884770BD080002400146002209B90120D4
:100A90007047164B0868C01A1423B0FBF3F08000AF
:100AA000086412480838C863022081F821000868E9
:100AB000026843F6F0708243D1E901031843CB6822
:100AC00018430B6918434B6918438B691843CB696A
:100AD000184302430868026000208863012081F8FF
:100AE0002100002081F8200000BFD1E7080002406B
:100AF0002DE9F8470346002294466EE14FF00108C5
:100B000008FA02F4D1F8008008EA0400A0427DD17E
:100B1000DFF8DCA2D1F80480A8EB0A09D0453AD06E
:100B200014DCB8F1030F50D009DCB8F1000F31D05C
:100B3000B8F1010F1CD0B8F1020F49D120E0B8F193
:100B4000110F18D0B8F1120F42D11EE0B9F5881F6D
:100B500025D006DCB9F5803F20D0B9F5801F37D10C
:100B60001AE0B9F5001F18D0B9F5041F30D117E00D
:100B7000D1F80CC02DE0D1F80C8008F1040C28E06D
:100B8000D1F80C8008F1080C23E0D1F80C8008F1B2
:100B90000C0C1EE000BF00BF00BF00BF00BF00BFC5
:100BA000D1F80880B8F1000F02D14FF0040C0BE02F
:100BB000D1F80880B8F1010F03D14FF0080C1C6187
:100BC00002E04FF0080C5C6103E04FF0000C00E025
:100BD00000BF00BFFF2801D8984601E003F10408D8
:100BE0004646FF2802D84FEA820803E0A2F108082F
:100BF0004FEA88084746D6F800804FF00F0909FAF7
:100C000007F928EA09080CFA07F900E088E048EA41
:100C10000908C6F80080D1F8048008F08058B8F1BF
:100C2000805F7DD100BFDFF8CC81D8F8188048F014
:100C30000108DFF8C091C9F81880C846D8F81880B4
:100C400008F00108CDF8008000BF00BF4FEAB938B6
:100C50004FEA920958F829504FEA82784FEA1879FA
:100C60004FF00F0808FA09F825EA0805DFF888812F
:100C7000434502D14FF0000816E0DFF8808143457C
:100C800002D14FF001080FE0DFF87481434502D133
:100C90004FF0020808E0DFF86C81434502D14FF0C5
:100CA000030801E04FF004084FEA82794FEA19790E
:100CB00008FA09F848EA0505DFF84C814FEA92097D
:100CC00048F82950D1F8048008F48018B8F5801F3E
:100CD0000AD1DFF83881D8F8008048EA0008DFF848
:100CE0002C91C9F8008009E0DFF82081D8F8008055
:100CF00028EA0008DFF81491C9F80080D1F80480D0
:100D000008F40018B8F5001F10D1DFF8008108F1D1
:100D10000408D8F8008048EA0008DFF8F09000E006
:100D20005AE009F10409C9F800800DE0DFF8DC8021
:100D300008F10408D8F8008028EA0008DFF8CC9011
:100D400009F10409C9F80080D1F8048008F40038DA
:100D5000B8F5003F0ED1DFF8B480A8F10408D8F848
:100D6000008048EA0008DFF8A490A9F10409C9F856
:100D700000800DE0DFF89480A8F10408D8F8008026
:100D800028EA0008DFF88490A9F10409C9F8008076
:100D9000D1F8048008F48038B8F5803F0ED1DFF830
:100DA0006C80A8F10808D8F8008048EA0008DFF84D
:100DB0005C90A9F10809C9F800800DE0DFF84C80CB
:100DC000A8F10808D8F8008028EA0008DFF83C906D
:100DD000A9F10809C9F80080521CD1F8008028FA4E
:100DE00002F8B8F1000F7FF489AEBDE8F887000083
:100DF000000011100010024000080140000C0140EA
:100E000000100140001401400800014008040140A6
:100E10000AB1016101E00B040361704701480068F9
:100E200070470000C400002070B504460CB90120D2
:100E300070BD94F83D0028B9002084F83C0020469D
:100E400000F022FC242084F83D002068006820F097
:100E50000100216808602068006840F400402168B3
:100E600008602068006820F400402168086000F0F5
:100E700023FE05465C496068884206D85B48854287
:100E800001D2012007E0002005E05948854201D247
:100E9000012000E00020012800D1C9E75548B5FB3A
:100EA000F0F62068406820F03F0030432168486039
:100EB0004D496068884201D8701C07E04FF4967075
:100EC00070434FF47A71B0FBF1F0401C2168096A5D
:100ED00021F03F0108432168086243496068884265
:100EE00014D8681E61684900B0FBF1F0401CC0F3E3
:100EF0000B00042801D204203DE0681E616849000F
:100F0000B0FBF1F0401CC0F30B0034E0A06838B92E
:100F1000681E616801EB4101B0FBF1F0401C0AE082
:100F2000681E616801EBC10202EB0111B0FBF1F038
:100F3000401C40F48040C0F30B0008B901201AE0C7
:100F4000A06848B9681E616801EB4101B0FBF1F08F
:100F5000401CC0F30B000CE0681E616801EBC1028D
:100F600002EB0111B0FBF1F0401CC0F30B0040F4A8
:100F7000804040F400402168C9694CF6FF729143FB
:100F800008432168C861D4E907010843216809685A
:100F900021F0C001084321680860D4E90310084328
:100FA0002168896848F2FF329143084321688860CC
:100FB000D4E9050108432168C96821F0FF0108430D
:100FC0002168C8602068006840F00100216808605E
:100FD00000202064202084F83D000020206384F855
:100FE0003E0000BF24E70000A086010080841E00B0
:100FF00000093D0040420F002DE9F84F04460F461E
:1010000090461E46FFF70AFF05464FF0000994F888
:101010003D0020287ED119230122634920460095F6
:1010200001F0BFFE10B10220BDE8F88F00BF94F8B8
:101030003C00012801D10220F6E7012084F83C00A1
:1010400000BF2068006800F0010028B9206800682F
:1010500040F00100216808602068006820F400600A
:1010600021680860242084F83D00002020644F4857
:10107000E06200BF2068006840F48070216808606A
:10108000334600224FF001112046009501F089FE01
:1010900058B12068006800F48070B0F5807F02D1FC
:1010A0004FF4007020640320BEE707F0FE002168C3
:1010B0000861FFF7B3FE054620684069C0F3400AA7
:1010C00020684069C0F3802B10E0FFF7A7FE401BAB
:1010D000B04200D816B9A02084F83D0020684069CD
:1010E000C0F3400A20684069C0F3802B94F83D00AB
:1010F000A02805D0BAF1000F02D1BBF1000FE4D057
:10110000202084F83D0020684069C0F3400028B3E7
:10111000206800E045E0006840F400702168086045
:1011200000BF00200090206840690090206880691E
:10113000009000BF00BF192301221B4920460095E3
:1011400001F02FFE08B101206EE7202084F83D0059
:1011500000BF002084F83C0000BF65E720680068FD
:1011600040F40070216808606FF480602168486175
:10117000192301220C492046009501F012FE08B106
:10118000012051E709F10109C145FFF473AF2020A7
:1011900084F83D0000BF002084F83C0000BF01201F
:1011A00042E7022040E70000020010000000FFFFBD
:1011B0002DE9FE4F04460F4690469946DDE90CABFB
:1011C0000E9E00200290FFF729FE054694F83D0090
:1011D000202872D119230122CE492046009501F022
:1011E000E0FD10B10220BDE8FE8F00BF94F83C0086
:1011F000012801D10220F6E7012084F83C0000BF5D
:101200002068006800F0010028B92068006840F0FC
:101210000100216808602068006820F400602168EF
:101220000860222084F83D00402084F83E00002021
:101230002064C4F824A0A4F82AB0608D2085B648A4
:10124000E0624B46424639462046CDE9006501F052
:1012500055FC08B10120C6E7208D88B900BF0020E9
:10126000019020684069019020688069019000BF6A
:1012700000BF2068006840F40070216808604BE0FF
:10128000208D01281AD12068006820F48060216830
:10129000086072B600BF002001902068406901908C
:1012A00020688069019000BF00BF2068006840F49A
:1012B00000702168086062B62EE029E1208D0228C6
:1012C00019D12068006840F400602168086072B697
:1012D00000BF00200190206840690190206880696B
:1012E000019000BF00BF2068006820F48060216882
:1012F000086062B610E02068006840F480602168F1
:10130000086000BF002001902068406901902068BB
:101310008069019000BF00BFEBE0208D03287DD8DD
:10132000208D012815D12A463146204601F015FEB0
:1013300008B1012057E720680069616A0870606A97
:10134000401C6062208D401E2085608D401E60859F
:10135000CFE0208D02282CD1334600226F49204651
:10136000009501F01EFD08B101203CE772B620682F
:10137000006840F400702168086020680069616AB4
:101380000870606A401C6062208D401E2085608D60
:10139000401E608562B620680069616A0870606AF4
:1013A000401C6062208D401E2085608D401E60853F
:1013B0009FE03346002259492046009501F0F1FC98
:1013C00008B101200FE72068006820F480602168E0
:1013D000086072B620680069616A0870606A401C23
:1013E0006062208D401E2085608D401E60854C48C7
:1013F00000681921B0FBF1F04FF47A71B0FBF1F005
:10140000C0EBC00000EB8000029000BF0298401EBD
:1014100002900298A8B90020206300E039E0202063
:1014200084F83D00002084F83E00206C40F020004D
:10143000206462B600BF002084F83C0000BF012099
:10144000D1E620684069C0F380000028DED0206823
:10145000006840F400702168086020680069616AD3
:101460000870606A401C6062208D401E2085608D7F
:10147000401E608562B620680069616A0870606A13
:10148000401C6062208D401E2085608D401E60855E
:101490002FE02A463146204601F05FFD08B10120C9
:1014A000A1E620680069616A0870606A401C606299
:1014B000208D401E2085608D401E6085206840691B
:1014C000C0F38000A8B1208D032805D120680068F2
:1014D00020F480602168086020680069616A0870F3
:1014E000606A401C6062208D401E2085608D401E19
:1014F0006085208D00287FF410AF202084F83D0007
:10150000002084F83E0000BF84F83C0000BF6AE67B
:10151000022068E6020010000000FFFF0400010046
:10152000D00000202DE9FC5F04460F469046994606
:10153000DDE90CAB0E9EFFF771FC054694F83D000B
:1015400020287DD1192301224D492046009501F024
:1015500028FC10B10220BDE8FC9F00BF94F83C00BD
:10156000012801D10220F6E7012084F83C0000BFE9
:101570002068006800F0010028B92068006840F089
:101580000100216808602068006820F4006021687C
:101590000860212084F83D00402084F83E000020AF
:1015A0002064C4F824A0A4F82AB0608D20853548B2
:1015B000E0624B46424639462046CDE9006501F0DF
:1015C0004DFB08B10120C6E731E02A4631462046EE
:1015D00001F008FD50B1206C042805D12068006896
:1015E00040F40070216808600120B4E7606A007868
:1015F00021680861606A401C6062208D401E208561
:10160000608D401E608520684069C0F3800070B125
:10161000208D60B1606A007821680861606A401CB2
:101620006062208D401E2085608D401E6085208D6B
:101630000028CAD12A463146204601F07FFB00E04F
:101640001CE050B1206C042805D12068006840F4EB
:1016500000702168086001207DE72068006840F480
:10166000007021680860202084F83D00002084F884
:101670003E0000BF84F83C0000BF6CE702206AE730
:10168000020010000000FFFF10B586B004460020E5
:1016900002900390049005902F492068884258D109
:1016A00000BF2E48806940F008002C498861084638
:1016B000806900F00800019000BF00BFC0200290C8
:1016C000122003900320059002A92548FFF710FA85
:1016D00000BF2248C06940F400102049C861084694
:1016E000C06900F40010019000BF00BF1D481E49F2
:1016F00008600020486000211B4881608021C16093
:101700000021016141618161C161FFF7BDF908B14B
:10171000FFF766F800BF1448A063446200BF114899
:101720001438124908601020486000210F48816079
:101730008021C1600021016141618161C161FFF7C8
:10174000A3F908B1FFF74CF800BF08486063446292
:1017500000BF06B010BD0000005400400010024061
:10176000000C014080000240A8010020EC01002094
:101770000348006803490978084401490860704734
:10178000C4000020CC00002010B50848006840F0DC
:10179000100006490860032000F0AEF80F2000F0AA
:1017A00007F800F02BF8002010BD000000200240D8
:1017B00070B504460E4800784FF47A71B1FBF0F032
:1017C0000C490968B1FBF0F5284600F0FFFB08B1B1
:1017D000012070BD102C07D200222146501E00F0BF
:1017E0004DF80548046001E00120F2E70020F0E731
:1017F000CC000020D0000020C800002008B500BFA9
:101800001448806940F001001249886108468069E7
:1018100000F00100009000BF00BF00BF0846C06993
:1018200040F08050C8610846C06900F080500090C8
:1018300000BF00BF00220F21901E00F01FF800BF64
:101840000549486820F0E06040F00070486000BF43
:1018500008BD00000010024000000140014608469B
:10186000002809DB00F01F0301229A4043099B0076
:1018700003F1E023C3F8002100BF70472DE9F05FBA
:1018800080460D461646002702F004FA0746394600
:101890002A46334601F00700C0F1070ABAF1040FE7
:1018A00002D94FF0040A01E0C0F1070AD14600F165
:1018B000040ABAF1070F02D24FF0000A01E0A0F1CA
:1018C000030AD4464FF0010A0AFA09FAAAF1010AFA
:1018D0000AEA020A0AFA0CFA4FF0010B0BFA0CFBA7
:1018E000ABF1010B0BEA030B4AEA0B04214640461D
:1018F00002F0D8F9BDE8F09F00BF00F00702064BE8
:1019000019684FF6FF031940044B0B4343EA0221C9
:10191000014B196000BF70470CED00E00000FA05B4
:1019200070B504460D460CB9012070BD5A480068D8
:1019300000F00700A8420ED25748006820F00700C8
:101940002843554908600846006800F00700A8428F
:1019500001D00120E9E7207800F0020002281DD123
:10196000207800F00400042805D14C48406840F479
:10197000E0604A494860207800F00800082805D156
:101980004648406840F460504449486043484068D5
:1019900020F0F000A168084340494860207800F03A
:1019A000010078B36068012806D13C48006800F463
:1019B000003090B90120B8E76068022806D13748A6
:1019C000006800F0007040B90120AEE733480068BD
:1019D00000F0020008B90120A7E73048406820F075
:1019E0000300616808432D494860FFF717FA06466F
:1019F00009E0FFF713FA801B41F28831884202D9CF
:101A0000032092E707E02548406800F00C00616879
:101A1000B0EB810FEDD12048006800F00700A8422C
:101A20000ED91D48006820F0070028431A490860B5
:101A30000846006800F00700A84201D0012074E7C2
:101A4000207800F00400042807D11448406820F4EE
:101A5000E060E168084311494860207800F0080020
:101A6000082808D10D48406820F46050216940EAF8
:101A7000C1000A49486000F03FF808494968C1F3CD
:101A80000311074A515CC8400649086006480068CF
:101A9000FFF78EFE002048E70020024000100240C1
:101AA000A6710008D0000020C8000020014800688E
:101AB00070470000D000002000B5FFF7F7FF044991
:101AC0004968C1F30221034A515CC84000BD0000CF
:101AD00000100240B671000800B5FFF7E7FF0449A7
:101AE0004968C1F3C221034A515CC84000BD0000EF
:101AF00000100240B671000870B5002100220024D9
:101B000000230020134D696801F00C05F5B1042D88
:101B100002D0082D19D101E00F4819E00F4DC1F393
:101B20008346AB5D01F4803555B10A4D6D68C5F350
:101B300040450B4E725D084D5D43B5FBF2F402E08B
:101B4000084D03FB05F4204602E000BF024800BF39
:101B500000BF70BD0010024000127A0094710008AE
:101B6000A471000800093D00F8B504460CB9012035
:101B7000F8BD207800F00100002878D0F8484068CF
:101B800000F00C0004280CD0F548406800F00C0070
:101B9000082811D1F248406800F48030B0F5803F49
:101BA0000AD1EF48006800F4003000285FD0606878
:101BB00000285CD10120DBE700BF6068B0F5803F02
:101BC00006D1E748006840F48030E549086028E025
:101BD000606858B9E248006820F48030E049086045
:101BE0000846006820F4802008601AE06068B0F5BC
:101BF000A02F0BD1DA48006840F48020D849086053
:101C00000846006840F4803008600AE0D448006864
:101C100020F48030D24908600846006820F4802013
:101C2000086000BF606888B1FFF7F8F8054606E075
:101C3000FFF7F4F8401B642801D9032098E7C8484F
:101C4000006800F400300028F2D010E0FFF7E6F85A
:101C5000054606E0FFF7E2F8401B642801D903209F
:101C600086E7BF48006800F400300028F2D12078F1
:101C700000F00200022857D1B948406800F00C007B
:101C800050B1B748406800F00C00082818D1B4489B
:101C9000406800F4803098B9B148006800F0020054
:101CA00020B12069012801D0012061E7AC4800681B
:101CB00020F0F800616940EAC100A949086033E0FA
:101CC0002069E8B10120A7490860FFF7A7F8054699
:101CD00006E0FFF7A3F8401B022801D9032047E7DD
:101CE0009F48006800F002000028F2D09C4800687D
:101CF00020F0F800616940EAC1009949086013E0EA
:101D0000002098490860FFF789F8054606E0FFF7CC
:101D100085F8401B022801D9032029E79048006874
:101D200000F002000028F2D1207800F00800082816
:101D30002DD1A069B8B101208B490860FFF76EF87A
:101D4000054606E0FFF76AF8401B022801D9032088
:101D50000EE78348406A00F002000028F2D001201C
:101D600001F02AFC13E000207F490860FFF756F8D5
:101D7000054606E0FFF752F8401B022801D9032070
:101D8000F6E67748406A00F002000028F2D1207899
:101D900000F00400042873D100277148C06900F0E6
:101DA000805070B900BF6E48C06940F080506C49E7
:101DB000C8610846C06900F08050009000BF00BFB5
:101DC00001276A48006800F48070B0B9674800686D
:101DD00040F4807065490860FFF720F8054606E08A
:101DE000FFF71CF8401B642801D90320C0E65F48B8
:101DF000006800F480700028F2D000BFE06801287D
:101E000006D15748006A40F001005549086227E0B2
:101E1000E06858B95248006A20F001005049086251
:101E20000846006A20F00400086219E0E06805280E
:101E30000BD14B48006A40F004004949086208464B
:101E4000006A40F0010008620AE04548006A20F09C
:101E50000100434908620846006A20F00400086255
:101E600000BFE068A0B1FEF7D9FF054609E0FEF724
:101E7000D5FF401B41F28831884202D9032077E622
:101E800022E03748006A00F002000028EFD012E09C
:101E9000FEF7C4FF054608E0FEF7C0FF401B41F215
:101EA0008831884201D9032062E62D48006A00F09B
:101EB00002000028F0D1012F05D12948C06920F087
:101EC00080502749C86100BFE069C8B32448406812
:101ED00000F00C00082860D0E069022848D10020FA
:101EE00020490866FEF79AFF054606E0FEF796FFD2
:101EF000401B022801D903203AE61948006800F087
:101F000000700028F2D1206AB0F5803F07D1144854
:101F1000406820F40030A168084311494860D4E9C2
:101F2000080108430E49496821F4741108430C491B
:101F3000486001200B490866FEF770FF054607E080
:101F40003DE0FEF76BFF401B022801D903200FE69E
:101F50000348006800F000700028F2D02FE0000075
:101F600000100240000042428004424200700040E3
:101F7000002014490866FEF751FF054606E0FEF70B
:101F80004DFF401B022801D90320F1E50E480068EF
:101F900000F000700028F2D111E0E069012800D1C2
:101FA000E6E50948466806F48031206A814204D19A
:101FB00006F47011606A814201D00120D8E500204A
:101FC000D6E50000000042420010024070B5044611
:101FD0002546681EB0F1807F01D301200FE0681E06
:101FE0004FF0E02148610F214FF0FF3001F05AFE21
:101FF00000204FF0E021886107200861002070BDBB
:1020000030B502460B4600BF92F83C00012801D1D2
:10201000022030BD012082F83C0000BF022082F87F
:102020003D00106844681068816824F070041868E6
:10203000044310684460104D1068A8420BD010682B
:10204000B0F1804F07D00D4D1068A84203D00C4D61
:102050001068A84205D121F080015868014310683A
:102060008160012082F83D0000BF002082F83C0022
:1020700000BF00BFCDE70000002C0140000400407D
:102080000008004010B586B004460020029003907E
:10209000049005902068B0F1804F16D100BF0C4825
:1020A000806940F004000A4988610846806900F0B0
:1020B0000400019000BF00BF0F2002900220039097
:1020C000059002A90348FEF713FD06B010BD0000FD
:1020D00000100240000801402DE9F04104460D4681
:1020E0001646002700BF94F83C00012802D10220C8
:1020F000BDE8F081012084F83C0000BF36B1042E19
:102100001BD0082E31D00C2E5ED145E02946206828
:1021100001F0F4FA2068806940F0080021688861C5
:102120002068806920F00400216888612068806947
:10213000296908432168886148E02946206801F040
:102140000DFB2068806940F4006021688861206888
:10215000806920F48060216888612068806929692D
:1021600040EA01202168886130E02946206801F0BA
:1021700029FB2068C06940F008002168C861206818
:10218000C06920F004002168C8612068C06929691D
:1021900008432168C86119E02946206801F046FB20
:1021A0002068C06940F400602168C8612068C06987
:1021B00020F480602168C8612068C069296940EA0C
:1021C00001202168C86101E0012700BF00BF00BFF6
:1021D000002084F83C0000BF384689E710B504466B
:1021E0000CB9012010BD94F83D0028B9002084F8F6
:1021F0003C00204600F026F8022084F83D00211D16
:10220000206801F027FA012084F8460000BF84F816
:102210003E0001213F20015540200155412001553C
:1022200000BF00BF012084F8420043200155442034
:1022300001554520015500BF012084F83D000020D4
:10224000D0E7000008B50168B1F1804F0DD100BFA3
:102250000649C96941F00101044AD1611146C969C1
:1022600001F00101009100BF00BF08BD0010024055
:1022700070B504460D4615B994F83E000BE0042DE8
:1022800002D13F20005D06E0082D02D14020005D14
:1022900001E04120005D012801D0012070BD1DB981
:1022A000022084F83E000EE0042D03D102213F20DD
:1022B000015508E0082D03D102214020015502E01C
:1022C00002214120015501222946206801F004FA2B
:1022D00019492068884201D1012000E0002028B17E
:1022E0002068406C40F4004021684864124920682E
:1022F00088420BD02068B0F1804F07D00F4920688A
:10230000884203D00E49206888420CD1206880683A
:1023100000F00706062E0CD02068006840F001008F
:102320002168086005E02068006840F0010021682D
:1023300008600020B2E70000002C014000040040CB
:1023400000080040704770472DE9F84F04462068A8
:1023500005682068C668206847694FF00009CA46CA
:1023600005F00F09B9F1000F0AD105F0200038B1CE
:1023700006F0200020B1204601F0CCFABDE8F88F2D
:10238000B9F1000F7BD007F0010018B906F4907086
:10239000002874D005F0010030B106F4807018B147
:1023A000606C40F00100606405F0040030B107F09B
:1023B000010018B1606C40F00200606405F002009A
:1023C00030B107F0010018B1606C40F004006064A7
:1023D00005F0080048B106F0200010B907F0010030
:1023E00018B1606C40F008006064606C002845D053
:1023F00005F0200028B106F0200010B1204601F0C1
:1024000089FA20684069C0F3801A606C00F0080007
:1024100010B9BAF1000F2CD0204601F035FA20682F
:10242000406900F0400000B300BF00BF21681431D4
:1024300051E8001F21F040002168143141E80002FA
:10244000002AF3D100BFE06B50B17748E16B4863DD
:10245000E06BFEF7F3F988B1E06B416B88470DE064
:102460002046FFF770FF09E009E02046FFF76BFF09
:1024700004E02046FFF767FF002060647EE7206BE2
:10248000012877D105F01000002873D006F0100065
:102490000028FAD000BF002000902068006800905B
:1024A00020684068009000BF00BF2068406900F0CD
:1024B000400000285FD0E06B006840681FFA80F899
:1024C000B8F1000F55D0A08D404552DDA4F82E8004
:1024D000E06B8069202843D000BF00BF21680C3129
:1024E00051E8001F21F4807021680C3141E800029E
:1024F000002AF3D100BF00BF00BF2168143151E8AA
:10250000001F21F001002168143141E80002002A77
:10251000F3D100BF00BF00BF2168143151E8001F94
:1025200021F040002168143141E80002002AF3D173
:1025300000BF202084F842000020206300BF00BFBD
:1025400021680C3151E8001F21F0100021680C3186
:1025500041E80002002AF3D100BFE06BFEF743F927
:1025600002206063A08DE28D801A81B22046FFF7C1
:10257000E9FE03E742E0A08DE18D401A1FFA80F8E2
:10258000E08DD0B3B8F1000F37D000BF00BF216895
:102590000C3151E8001F21F4907021680C3141E8A2
:1025A0000002002AF3D100BF00BF00BF2168143130
:1025B00051E8001F21F001002168143141E80002B8
:1025C000002AF3D100BF202084F8420000202063BD
:1025D00000BF00BF21680C3151E8001F21F010003E
:1025E00021680C3141E80002002AF3D100BF02202B
:1025F000606341462046FFF7A5FEBFE605F0800078
:1026000030B106F0800018B1204601F09FFAB5E61F
:1026100005F0400030B106F0400018B1204601F04E
:1026200069F9ABE600BFA9E67538000810B50446A5
:102630000CB9012010BDA06900B100E000BF94F802
:10264000410028B9002084F84000204600F02AF814
:10265000242084F841002068C06820F400502168DC
:10266000C860204601F0D4F92068006920F4904049
:10267000216808612068406920F02A0021684861CB
:102680002068C06840F400502168C8600020606481
:10269000202084F8410084F842000020606300BFDD
:1026A000C8E7000010B586B00446002002900390F1
:1026B000049005901E492068884236D100BF1D480D
:1026C000806940F480401B4988610846806900F4B5
:1026D0008040019000BF00BF00BF0846806940F005
:1026E000040088610846806900F00400019000BF82
:1026F00000BF48150290022003900320059002A914
:102700000D48FEF7F5F94FF4806002900020039029
:10271000049002A90848FEF7EBF9002205212520C4
:10272000FFF7ACF82520FFF799F806B010BD0000C0
:1027300000380140001002400008014070B5044616
:102740000D46164694F8420020280BD105B10EB96B
:10275000012070BD0020206332462946204601F04A
:10276000D5F9F6E70220F4E770B505462349286855
:10277000884200D070BD224804782248007820B1F9
:10278000012808D002282DD11CE05B2C02D10120A9
:102790001C4908702AE0312C0ADB362C08DCA4F135
:1027A0003001C8B203F0BAF802201649087008E0F8
:1027B0005B2C03D101201349087002E0002011496D
:1027C000087013E05D2C03D100200E49087008E06A
:1027D0005B2C03D101200B49087002E0002009495D
:1027E000087003E000200749087000BF00BF012205
:1027F00003490548FFF7A2FF00BFBBE700380140CF
:102800007800002083000020780200202DE9F84F96
:1028100004460E46174699464FF0000A94F84100C8
:10282000202850D106B117B90120BDE8F88F00204B
:102830006064212084F84100FEF7F0FA8246A78404
:10284000E784A068B0F5805F04D1206910B9002545
:10285000B04602E035464FF000081EE05346002225
:1028600080212046CDF8009001F0A0F920B1202071
:1028700084F841000320D8E745B9B8F80000C0F358
:1028800008002168486008F1020803E02878216800
:1028900048606D1CE08C401EE084E08C0028DDD197
:1028A0005346002240212046CDF8009001F07EF9E9
:1028B00020B1202084F841000320B6E7202084F8CE
:1028C00041000020B1E70220AFE7704770B5054630
:1028D0000C46012D06D0022D27D0032D48D0042D03
:1028E00071D168E034B1012C0BD0022C10D0032C34
:1028F00018D112E00020FDF74BFF424909684863F8
:1029000011E04148FDF744FF3E49096848630AE089
:102910000221012000F07AF805E00321012000F0F7
:1029200075F800E000BF00BF6AE034B1012C0BD0A5
:10293000022C10D0032C18D112E00020FDF728FF44
:1029400030490968886311E02F48FDF721FF2D49C0
:10295000096888630AE00221084600F057F805E09C
:102960000321022000F052F800E000BF00BF47E062
:1029700034B1012C0BD0022C10D0032C18D112E052
:102980000020FDF705FF1F490968C86311E01E48D4
:10299000FDF7FEFE1B490968C8630AE00221032017
:1029A00000F034F805E00321084600F02FF800E0BD
:1029B00000BF00BF24E03CB1012C0CD0022C11D090
:1029C000032C19D113E01AE00020FDF7E1FE0D49B8
:1029D0000968086411E00C48FDF7DAFE0949096846
:1029E00008640AE00221042000F010F805E0032149
:1029F000042000F00BF800E000BF00BF00E000BFC3
:102A000000BF70BD3002002000806D4470B50546E7
:102A10000E46022E25D1284602F004FA0446C83498
:102A200040F2B630844200D30446012D06D0022D78
:102A300008D0032D0AD0042D10D10BE01D480068EA
:102A400044630CE01B480068846308E01948006890
:102A5000C46304E017480068046400E000BF00BFDE
:102A600027E0032E25D1284602F0DCF90446B4F510
:102A7000C87F01D8C82400E0C83C012D06D0022D33
:102A800008D0032D0AD0042D10D10BE009480068AE
:102A900044630CE007480068846308E00548006868
:102AA000C46304E003480068046400E000BF00BFA2
:102AB00000BF70BD3002002000BFFEE7014608687D
:102AC0004069C0F38020B0B16FF480600A68506143
:102AD00000200863202081F83D00002081F83E009E
:102AE000086C40F00400086400BF002081F83C003E
:102AF00000BF012070470020FCE700002DE9F843EB
:102B000004460F4615469946DDE9088620680068A8
:102B100040F48060216808602068006840F480709C
:102B200021680860434600224FF0011120460096BC
:102B300000F037F960B12068006800F48070B0F5EB
:102B4000807F02D14FF4007020640320BDE8F88339
:102B500007F0FE0021680861334642463E492046A0
:102B600000F07EF908B10120F0E700BF00200090DE
:102B700020684069009020688069009000BF00BF15
:102B800032464146204600F02DFA50B1206C042810
:102B900005D12068006840F40070216808600120B9
:102BA000D4E7B9F1010F03D1E8B22168086117E059
:102BB000C5F307202168086132464146204600F0EF
:102BC00011FA50B1206C042805D12068006840F447
:102BD0000070216808600120B8E7E8B22168086148
:102BE00032464146204600F0FDF950B1206C0428E1
:102BF00005D12068006840F4007021680860012059
:102C0000A4E72068006840F48070216808604346AB
:102C100000224FF001112046009600F0C2F858B192
:102C20002068006800F48070B0F5807F02D14FF416
:102C300000702064032089E7F8B240F001002168A9
:102C40000861334642460449204600F009F908B1BC
:102C500001207BE7002079E7020001002DE9F8431D
:102C60000446884615469946DDE9086720680068ED
:102C700040F4807021680860334600224FF0011153
:102C80002046009700F08DF860B12068006800F4DD
:102C90008070B0F5807F02D14FF400702064032073
:102CA000BDE8F88308F0FE00216808613B46324623
:102CB0002149204600F0D4F808B10120F0E700BF18
:102CC0000020009020684069009020688069009092
:102CD00000BF00BF3A463146204600F083F950B1AC
:102CE000206C042805D12068006840F40070216839
:102CF00008600120D4E7B9F1010F03D1E8B22168DF
:102D0000086117E0C5F30720216808613A4631469B
:102D1000204600F067F950B1206C042805D12068E6
:102D2000006840F40070216808600120B8E7E8B24C
:102D3000216808610020B3E70200010070B5044675
:102D40000D46164625E02046FFF7B8FE08B10120E3
:102D500070BD681CE8B1FEF761F8801BA84200D87E
:102D6000BDB920684069C0F3800090B9002020639D
:102D7000202084F83D00002084F83E00206C40F0C4
:102D80002000206400BF002084F83C0000BF012028
:102D9000DEE720684069C0F380000028D3D000201F
:102DA000D6E72DE9F04104460D4617461E46DDF8EC
:102DB000188038E0701CA8B3FEF730F8A0EB0800CC
:102DC000B04200D876BBC5F3074001280AD120687D
:102DD0004069A9B20840A9B2884201D101200BE0A4
:102DE000002009E020688069A9B20840A9B28842A1
:102DF00001D1012000E00020B84214D1002020635E
:102E0000202084F83D00002084F83E00206C40F033
:102E10002000206400BF002084F83C0000BF012097
:102E2000BDE8F081FFE7C5F3074001280AD120681B
:102E30004069A9B20840A9B2884201D101200BE043
:102E4000002009E020688069A9B20840A9B2884240
:102E500001D1012000E00020B842ABD00020DFE724
:102E60002DE9F04104460D4616461F4658E02068FD
:102E70004069C0F38020E8B12068006840F4007029
:102E8000216808606FF48060216848610020206339
:102E9000202084F83D00002084F83E00206C40F0A3
:102EA0000400206400BF002084F83C0000BF012023
:102EB000BDE8F081701C90B3FDF7B0FFC01BB042BD
:102EC00000D866BBC5F3074001280AD120684069D5
:102ED000A9B20840A9B2884201D101200BE000202C
:102EE00009E020688069A9B20840A9B2884201D1EE
:102EF000012000E0002090B900202063202084F809
:102F00003D00002084F83E00206C40F0200020644A
:102F100000BF002084F83C0000BF0120C8E7FFE7A5
:102F2000C5F3074001280AD120684069A9B20840CA
:102F3000A9B2884201D101200BE0002009E02068FD
:102F40008069A9B20840A9B2884201D1012000E0FD
:102F5000002000288BD00020AAE770B504460D465B
:102F6000164637E020684069C0F30010A0B16FF04A
:102F700010002168486100202063202084F83D0073
:102F8000002084F83E00206C206400BF002084F8FC
:102F90003C0000BF012070BDFDF740FF801BA84230
:102FA00000D8BDB920684069C0F3801090B90020F6
:102FB0002063202084F83D00002084F83E00206C2F
:102FC00040F02000206400BF002084F83C0000BFD7
:102FD0000120E0E720684069C0F380100028C1D0DC
:102FE0000020D8E770B504460D46164625E0204679
:102FF000FFF764FD08B1012070BD681CE8B1FDF762
:103000000DFF801BA84200D8BDB920684069C0F3FD
:10301000C01090B900202063202084F83D000020DB
:1030200084F83E00206C40F02000206400BF0020A7
:1030300084F83C0000BF0120DEE720684069C0F34F
:10304000C0100028D3D00020D6E7000010B5012220
:1030500051030948FDF7DCFE4FF4FA7000F096FFCB
:1030600000224FF400510448FDF7D2FE4FF4FA70ED
:1030700000F08CFF10BD00000010014002F084F849
:1030800000BF02F067FC0A2000F080FFF9E70000B3
:1030900008B500BF0E48406940F001000C49486186
:1030A0000846406900F00100009000BF00BF002208
:1030B00005211020FEF7E2FB1020FEF7CFFB0022D7
:1030C00005211120FEF7DAFB1120FEF7C7FB08BD32
:1030D0000010024010B5154A0C21102000F0ECFF42
:1030E00013490860134A0821182000F0E5FF12492F
:1030F0000860124A0021124801F06EF81149086078
:10310000114A0021114801F067F811490860114A7D
:103110000021114801F060F810490860104A0021B0
:10312000104801F059F81049086010BD647100089A
:10313000400000207C71000844000020D47000088A
:10314000E135000830000020F8700008550700083D
:10315000340000201C7100087D3000083800002079
:1031600040710008A53500083C00002000B585B07E
:103170000020019002900390049000BF37488069BE
:1031800040F01000354988610846806900F0100061
:10319000009000BF00BF00BF0846806940F02000DB
:1031A00088610846806900F02000009000BF00BFE1
:1031B00000BF0846806940F00400886108468069C5
:1031C00000F00400009000BF00BF00BF0846806907
:1031D00040F0080088610846806900F0080000900F
:1031E00000BF00BF00224FF400511D48FDF710FE44
:1031F0004FF4005001900120029000200390022023
:10320000049001A91648FDF773FC7020019000207E
:103210000290039001A91348FDF76AFC80200190F9
:10322000114802900020039001A90E48FDF760FCB0
:10323000012001900C4802900020039001A90B4846
:10324000FDF756FC0220019000200290039001A996
:103250000648FDF74DFC05B000BD0000001002401F
:10326000001001400008014000001110000C014056
:1032700010B50B480B4908600B484860002109480D
:103280008160C1604FF48041016100214161816131
:10329000C1610162FDF7C8FD08B1FDF7A1FA10BDDB
:1032A0000054004054010020A086010000B589B000
:1032B0000020079008901C216846FDF7E5F84FF0C4
:1032C0008040234908600720486000212048816031
:1032D00040F2E731C160002101618161FEF77EFFAC
:1032E00008B1FDF77DFA00200790089007A918485B
:1032F000FEF786FE08B1FDF773FA6020009000200B
:10330000019002900490002269461148FEF7E4FE05
:1033100008B1FDF765FA042269460D48FEF7DCFEA8
:1033200008B1FDF75DFA082269460948FEF7D4FEA8
:1033300008B1FDF755FA0C2269460548FEF7CCFEA8
:1033400008B1FDF74DFA0248FEF79CFE09B000BD3A
:103350003002002010B50B480B4908604FF416509E
:103360004860002108488160C16001610C21416111
:1033700000218161C161FFF759F908B1FDF730FA09
:1033800010BD0000003801407802002000BFFEE7B9
:1033900010B500210F48FEF76BFF04210D48FEF722
:1033A00067FF08210B48FEF763FF0C210948FEF771
:1033B0005FFF00210120FFF729FB00210220FFF71A
:1033C00025FB00210320FFF721FB00210420FFF74C
:1033D0001DFB10BD3002002010B501210846FFF78B
:1033E00075FA01210220FFF771FA01210320FFF78E
:1033F0006DFA01210420FFF769FA01210846FFF761
:1034000065FA01210220FFF761FA03210846FFF760
:103410005DFA03210420FFF759FA10BD10B503210E
:103420000120FFF753FA03210220FFF74FFA03218F
:103430000846FFF74BFA03210420FFF747FA10BDB7
:1034400010B501210846FFF741FA01210220FFF7DC
:103450003DFA01210320FFF739FA01210420FFF78B
:1034600035FA03210120FFF731FA03210220FFF78B
:103470002DFA01210320FFF729FA01210420FFF78B
:1034800025FA10BD10B501210846FFF71FFA0121EA
:103490000220FFF71BFA01210320FFF717FA012191
:1034A0000420FFF713FA03210120FFF70FFA01218F
:1034B0000220FFF70BFA01210320FFF707FA03218F
:1034C0000420FFF703FA10BD10B501210846FFF7ED
:1034D000FDF901210220FFF7F9F901210320FFF78F
:1034E000F5F901210420FFF7F1F910BD10B5012114
:1034F0000846FFF7EBF901210220FFF7E7F9012168
:103500000320FFF7E3F901210420FFF7DFF9012190
:103510000846FFF7DBF903210220FFF7D7F9032163
:103520000846FFF7D3F901210420FFF7CFF910BDBA
:1035300000B5012000F00AF8022000F007F803208F
:1035400000F004F8042000F001F800BD30B5054695
:10355000284601F067FC0446C82C01D8002400E08E
:10356000C83C012D06D0022D08D0032D0AD0042D11
:1035700010D10BE00948006844630CE0074800687C
:10358000846308E005480068C46304E003480068F9
:10359000046400E000BF00BF30BD00003002002026
:1035A00000BFFEE7FFF7F4FE00BF02F0FFF90A20BC
:1035B00000F0ECFCF9E7000008B508490968C90803
:1035C0004FF47A72B1FBF2F14143009100BF00BFAA
:1035D00000994A1E00920029F9D108BDD0000020B0
:1035E00000BFFFF733FD0A2000F0D0FCF9E710B56B
:1035F000FEF7BEF802F0D0FE012801D002F086FAF4
:1036000010BD00B58FB0282105A8FCF73DFF14219F
:103610006846FCF739FF0220059001200990102030
:103620000A9000200C9005A8FEF79EFA08B1FDF75D
:10363000D7F80F2000900020019002900390049092
:1036400000216846FEF76CF908B1FDF7C9F80FB024
:1036500000BD704710B502681C4B984208D0B0F10D
:10366000804F05D01A4B984202D01A4B984203D192
:1036700022F070024B681A43144B984208D0B0F104
:10368000804F05D0124B984202D0124B984203D182
:1036900022F44072CB681A4322F080034C6943EA5B
:1036A000040202608B68C3620B688362074B984216
:1036B00001D10B69036301234361036903F0010333
:1036C0001BB1036923F00103036110BD002C01400D
:1036D000000400400008004030B501F01F0501243F
:1036E00004FA05F3046A9C430462046A01F01F05AE
:1036F00002FA05F52C43046230BD000030B5026AC1
:10370000056A25F0010505624368846924F07004A8
:1037100024F003040D682C4322F002028D682A4332
:103720000D4DA84206D100BF22F00802CD682A4301
:1037300022F00402084DA84207D123F4807323F439
:1037400000734D692B438D692B43436084614D6841
:103750004563026230BD0000002C014030B5026AB2
:10376000056A25F0100505624368846924F4E04485
:1037700024F440740D6844EA052422F020028D6888
:1037800042EA05120E4DA84207D100BF22F0800286
:10379000CD6842EA051222F04002094DA84209D143
:1037A00023F4806323F400634D6943EA85038D6944
:1037B00043EA8503436084614D688563026230BDDE
:1037C000002C014030B5026A056A25F48075056257
:1037D0004368C46924F0700424F003040D682C438A
:1037E00022F400728D6842EA05220F4DA84207D1EB
:1037F00000BF22F40062CD6842EA052222F4806212
:10380000094DA84209D123F4805323F400534D6994
:1038100043EA05138D6943EA05134360C4614D68AB
:10382000C563026230BD0000002C014030B5036A60
:10383000056A25F4805505624468C26922F4E042B5
:1038400022F440720D6842EA052223F400538D6889
:1038500043EA0533064DA84204D124F480444D695F
:1038600044EA85144460C2614D680564036230BD5A
:10387000002C014070B505466C6A0020E085E084AC
:103880002046FEF760FD70BD00BF00BF02680C322D
:1038900052E8002F22F4907102680C3242E80013C3
:1038A000002BF3D100BF00BF00BF0268143252E802
:1038B000002F22F001010268143242E80013002BAD
:1038C000F3D100BF016B01290ED100BF00BF026818
:1038D0000C3252E8002F22F0100102680C3242E84C
:1038E0000013002BF3D100BF202180F842100021EB
:1038F0000163704710B504462068C06820F040009E
:103900002168C860202084F841002046FEF7DDFFD2
:10391000002010BDF8B5044694F84200222875D165
:10392000A068B0F5805F0CD1206950B90025A66A67
:1039300020684068C0F308003080A06A801CA06244
:1039400015E0A56A0026A068B0F5805F03D0A068E6
:1039500028B9206918B920684068287004E02068F8
:10396000406800F07F002870A06A401CA062E08DD3
:10397000401E80B2E085002846D12068C06820F053
:1039800020002168C8602068C06820F48070216829
:10399000C8602068406920F001002168486120204B
:1039A00084F8420000206063206B012826D10020AB
:1039B000206300BF00BF21680C3151E8001F21F0D7
:1039C000100021680C3141E80002002AF3D100BF49
:1039D0002068006800F0100010280AD100BF002005
:1039E000009020680068009020684068009000BF48
:1039F00000BFA18D2046FEF7A5FC02E02046FEF7A1
:103A0000B3FE0020F8BD01E00020FBE70220F9E74B
:103A100070B504462168096921F44051E2681143F8
:103A2000226811612269A1681143626941EA0205B5
:103A30002168C96841F20C62914329432268D16030
:103A40002168496921F44071A269114322685161DA
:103A50002D4A2168914202D1FEF73EF801E0FEF7BF
:103A60002BF800EBC00101EB001162689200B1FB82
:103A7000F2F100EBC00202EB001263689B00B2FBA4
:103A8000F3F26423B2FBF3F202EBC20303EB021284
:103A9000A1EB8201322202EB01116422B1FBF2F1AF
:103AA00001F0F00100EBC00202EB001263689B0022
:103AB000B2FBF3F26423B2FBF3F201EB021200EB70
:103AC000C00101EB001163689B00B1FBF3F100EB57
:103AD000C00303EB00136668B600B3FBF6F364267D
:103AE000B3FBF6F303EBC30606EB0313A1EB830171
:103AF000322303EB01116423B1FBF3F101F00F0159
:103B000011442268916070BD0038014010B5034631
:103B100099629A85DA8500205864222083F8420051
:103B2000186928B11868C06840F480701C68E060AB
:103B30001868406940F001001C6860611868C0683E
:103B400040F020001C68E060002010BD014691F8A4
:103B50004100212828D18868B0F5805F0BD1086921
:103B600048B90A6A1088C0F308000B685860086AF0
:103B7000801C086205E00B6A581C086218780B6804
:103B80005860C88C401E80B2C88458B90868C068A4
:103B900020F080000B68D8600868C06840F04000E2
:103BA0000B68D860002070470220FCE72DE9F8433D
:103BB00004460D4617469846089E31E0701C70B3C7
:103BC000FDF72CF9A0EB0800B04200D816B903208D
:103BD000BDE8F8832068C06800F00400F8B1802DCB
:103BE0001ED0402D1CD020680068C0F3C000B0B1CA
:103BF00000BF0020009020680068009020684068A6
:103C0000009000BF00BF2046FFF73EFE0820606422
:103C100000BF002084F8400000BF0120D8E7FFE784
:103C2000206800682840A84201D1012000E000205F
:103C3000B842C3D00020CBE710B50248FEF784FBA2
:103C400010BD00007802002000BFFEE7410008021E
:103C500018BF04200A0E18BF40F001004FF07F4249
:103C600032EA010108BF40F00200012808BF052028
:103C7000704701464FF07F40B0EB410F01D101206A
:103C800070470020FCE7014621F00040C0F1FF40F2
:103C9000C00F704702480068C0F302207047000060
:103CA0000CED00E010B5002804DB0A07130E054AEE
:103CB000135406E00A07140E034A00F00F031B1FFB
:103CC000D45410BD00E400E018ED00E0EFF30580EF
:103CD000704702F0B7BD6FF05E01080703F0BBB993
:103CE0002DE9F0474FF0684202EB40030C460546D1
:103CF000B3F1654F3CBF02EB4102B2F1654F7CD29C
:103D0000C0F3C753C1F3C7529A1A1B2A06DD10F03D
:103D1000004F14BF76487748BDE8F08712F11A0FBC
:103D200017DA11F0004F06D010F0004F0CBF7248A8
:103D30007248BDE8F0872146284602F0F7FD0446A8
:103D4000FFF784FF042808BFFFF7C5FF2046BDE842
:103D5000F0874200B2EB410F25D910F0004F19BF98
:103D6000674F684E684F694E224685F000441546FD
:103D70000A4680F0004110460A1A5200B2F1807FD4
:103D800040D248406249DFF88CA110F0004F18D0B3
:103D90004FF03F48384603F0B7F8074651463046E3
:103DA00003F0B2F817E011F0004F04BF00263746C9
:103DB000E2D010F0004F19BF574F584E584F594E90
:103DC000DAE74FF07C58384602F03CFD0746514692
:103DD000304602F037FD06464146284602F004FF11
:103DE000214602F02FFD82462146404602F0FCFEAD
:103DF000294602F0F6FF514600E037E002F096FD5A
:103E0000044604E02146284602F090FD044601469F
:103E100002F0EAFE8046444902F0E6FE434902F021
:103E200011FD414602F0E0FE414902F00BFD414622
:103E300002F0DAFE3F4902F005FD414602F0D4FEF1
:103E40003D4902F0FFFC05464146204602F0CCFE0B
:103E5000294602F0C9FE314602F0F4FC214602F088
:103E6000F1FC3946BDE8F04702F0ECBC4FF07F4270
:103E7000B2EB400F28BFB2EB410F03D2BDE8F047D1
:103E8000FFF727BF40EA01035B0008BF44F0FF4192
:103E90000AD0B2EB400F08BFB2EB410F06D125F0BC
:103EA000804024F0804105460C4629E7B2EB400FE4
:103EB00012BF5FEA410245F0FF4004F000413FF4C9
:103EC0001FAF4A0092EA40033FF51AAF002AACBF89
:103ED0004FF09F464FF03E56314602F085FE0546B4
:103EE0003146204602F080FE04462846214607E778
:103EF000DB0FC9BFDB0FC93FDB0F4940DB0F49C0F8
:103F00000000C9BF22AAFDB90000C93F22AAFD399D
:103F10000060ED3EC30ACE37000049C022AA7DBA38
:103F20000000494022AA7D3A2DAD65BD8FB8D53D30
:103F30000FB511BE61C84C3EA8AAAABE3EB5044644
:103F40000D46642001210B462246CDE90051029026
:103F5000D0210248FDF72CF93EBD0000540100209D
:103F6000FDF712FCFFF74DFBFFF700F9FFF790F8A4
:103F7000FFF77EF9FFF79AF9FFF7ECF900F016F872
:103F8000FFF7A8F800F028F800BFFEE770B5054677
:103F9000FFF79CFE10B16FF0050404E0002415B19A
:103FA000284601F05DFB204670BD000010B5FFF70C
:103FB0008DFE10B16FF0050409E00648006820B9D5
:103FC000012004490860002401E04FF0FF3420463E
:103FD00010BD00002401002070B5FFF777FE10B17E
:103FE0006FF005041FE011480068012819D100BFD7
:103FF000801F0021002804DB0A07130E0C4A13540B
:1040000006E00A07150E0B4A00F00F031B1FD554DC
:1040100000BF00BF02200549086001F09DFB00249D
:1040200001E04FF0FF34204670BD00002401002065
:1040300000E400E018ED00E02DE9F84307460D46E6
:1040400091461C463E464FF00008FFF73FFEE0B1A8
:104050000EB105B114B16FF0030828E00020009004
:104060006A462946304602F05BF8012802D06FF01C
:1040700002081CE00098D0B14FF080500D49086054
:10408000BFF34F8FBFF36F8F11E006B115B96FF01B
:1040900003080CE022462946304601F08DFF012836
:1040A00005D014B16FF0010801E06FF0020840463E
:1040B000BDE8F88304ED00E02DE9F84305460E461F
:1040C00014464FF00009FFF701FE00283ED1002DF5
:1040D0003CD0002E3AD0471EBCB1A06858B1E06871
:1040E000502808D3206930B105FB06F06169814290
:1040F00001D301270AE0A06840B9E06830B920691F
:1041000020B9606910B9002700E00027012F09D10C
:104110000020009031462846A368226901F03DFD49
:10412000814606E02FB900223146284601F008FDFD
:104130008146B9F1000F09D014B1D4F8008001E034
:104140004FF000084146484601F04EFA4846BDE8A7
:10415000F88300002DE9F84307460D4691461C46BA
:104160003E464FF00008FFF7B1FDE8B10EB105B1D2
:1041700014B16FF003082AE00020009000236A4683
:104180002946304601F09AFE012802D06FF002085D
:104190001DE00098D8B14FF080500E490860BFF381
:1041A0004F8FBFF36F8F12E006B115B96FF00308A0
:1041B0000DE0002322462946304601F0ABFD0128E0
:1041C00005D014B16FF0010801E06FF0020840461D
:1041D000BDE8F88304ED00E02DE9FF4780468946FD
:1041E000144600200390FFF771FD00284ED1B8F16E
:1041F000000F4BD0802618258246471E44B3206806
:1042000008B1D4F800A0A06900B1A5692DB1382D7E
:1042100003D8207900F0010018B1002004B0BDE8F7
:10422000F087606908B160698608A06840B1E068FD
:104230005C2805D3206918B1606908B1012708E03E
:10424000A06830B9E06820B9206910B9002700E003
:104250000027012F0CD12169A0684B463246CDE9D9
:10426000005102905146404602F038F803900DE0AC
:1042700067B903A8B2B24B465146CDE9005040465B
:1042800001F0FAFF012801D0002003900398C5E750
:104290002DE9F04105460E461648076816480068A5
:1042A000001D00F05FFE681C38B936B11248016885
:1042B000091D124800F05CFF1AE07C190E480068E6
:1042C0004460BC4207D20C480168091D0C480068D4
:1042D00000F034FF0CE008480168091D0948006837
:1042E00000F02CFF08480068844201D206480460B0
:1042F000BDE8F081E8000020D4000020C0070020C5
:10430000DC000020D80000200401002010B5044685
:1043100001F080F824480068401C234908602348C5
:10432000006840B9214804600846006801280DD1A2
:1043300000F0FCF90AE01E48006838B91B48006824
:10434000C06AE16A884201D81848046019480068C8
:10435000401C184908600846006860641649E06A15
:104360000968884202D91449E06A0860E16A01EBF1
:104370008101124A02EB8100211D00F0F9FE01F0DB
:1043800073F80B48006868B108480068C06AE16AC1
:10439000884207D24FF0805009490860BFF34F8F21
:1043A000BFF36F8F10BD0000E4000020D400002098
:1043B000F000002000010020EC000020100300208D
:1043C00004ED00E008B501F025F812480068E8B9EE
:1043D000114800F0A3FE114800F0A0FE0E4810495D
:1043E00008600E480F49086000200F4B0F4A10214B
:1043F00000900A2001F0D1FB0649086008460068D9
:1044000020B10BA10348006801F0EEF801F02CF890
:1044100008BD000018010020D4070020E807002094
:104420001001002014010020FC0700204C0800208F
:10443000546D72510000000010B516E000F0EAFF64
:104440000C48C068C468201D00F08CFD0A48006854
:10445000401E0949086009480068401E0749086075
:1044600001F002F8204600F05FF8044800680028D8
:10447000E4D110BDAC070020E4000020E0000020E3
:1044800070B504460D46206C70B1216CE0680144A3
:10449000E160D4E90210884201D32168E160284636
:1044A000226CE168FBF7A3FF70BD2DE9F0410446E3
:1044B0000F4615464FF00008A66B206C48B92068DF
:1044C00000282CD1A06802F01FF880460020A060D0
:1044D00025E07DB93946226C6068FBF788FF216CC6
:1044E000606808446060D4E90101884217D32068FD
:1044F000606014E03946226CE068FBF778FF216CBD
:10450000E068411AE1602168E068884203D2216CCA
:10451000A068411AE160022D01D106B1761E701C1F
:10452000A0634046BDE8F08110B5044694F85900F8
:1045300030B9206B00F0B6FF204600F0B3FF1AE060
:1045400094F85900012803D1204600F0ABFF12E097
:1045500094F85900022801D1012000E0002050B950
:1045600000BF502080F31188BFF34F8FBFF36F8FD0
:1045700000BF00BFFEE710BD0146084A126812687E
:104580000AB9012200E000220A600A6822B9034A3F
:104590001268D268106800E0002070471001002007
:1045A00030B54FF48053174800F007042CB1C01DFC
:1045B00020F00700134C041B1B1B0246124C226008
:1045C0000024114D6C60D018083820F007000F4C03
:1045D000206000240D4D2D686C600C4D2D682C6002
:1045E0001146441A4C60094C24680C60084D4C6814
:1045F0002C60084D4C682C604FF00044064D2C6038
:1046000030BD0000A40F0020280100203001002050
:1046100038010020340100204401002000BFFFF7D2
:104620000BFF064800680128F9D94FF08050044973
:104630000860BFF34F8FBFF36F8FF0E710030020C8
:1046400004ED00E02DE9F04106460D461746984678
:10465000069C0DB9246000E02760E6632564012113
:10466000204601F00BFB84F84C80BDE8F0812DE979
:10467000F05F82460E4690469B460A9F0C9C4FEA8E
:104680008801A522206BFBF7F7FEA8F10100216B42
:1046900001EB800929F0070909F0070008B901209A
:1046A00000E0002050B900BF502080F31188BFF314
:1046B0004F8FBFF36F8F00BF00BFFEE786B10025AD
:1046C00007E0715D04F134004155705D00B902E00E
:1046D0006D1C102DF5D300BF00214320015502E0D1
:1046E000002084F83400382F00D33727E762E764CE
:1046F00000202065201D00F01EFD04F1180000F0D0
:104700001AFD2461C7F13800A06164620020606571
:1047100084F858005A465146484600F071FB206024
:104720000B9808B10B980460BDE8F09F10B5002409
:1047300007E004EB84010F4A02EB810000F0EEFC7D
:10474000641C382CF5D30C4800F0E8FC0B4800F052
:10475000E5FC0B4800F0E2FC0A4800F0DFFC0A48E8
:1047600000F0DCFC04480949086004480849086076
:1047700010BD0000100300207007002084070020F7
:1047800098070020AC070020C0070020D8000020B8
:10479000DC00002010B50146164800E00068036800
:1047A0008B42FBD30246436813448B4204D14368D7
:1047B0004C682344436001460A464B68134404682E
:1047C000A34211D10C4C03682468A34208D04B6863
:1047D0000468646823444B6003681B680B6005E051
:1047E000054B1B680B6001E003680B60884200D03A
:1047F000016010BD28010020300100202DE9F041AA
:1048000004460D4616461F464FF0000865602461B9
:10481000B5420CD8F01BA169884202D34FF00108C1
:1048200011E0211D0948006800F088FC0BE0BE4241
:1048300004D2BD4202D34FF0010804E0211D044818
:10484000006800F07BFC4046BDE8F08114010020C8
:104850001001002070B5054600F0DCFDA86B08B91A
:10486000012400E0002400F0FFFD204670BD70B57B
:10487000054600F0CFFDA86BE96B884201D1012409
:1048800000E0002400F0F0FD204670BDF8B50546BC
:104890000F461A480068C068C468201D00F062FB1B
:1048A00094F8280000F00400E8B1A06941192B46F3
:1048B0003A462046FFF7A2FFD8B1002003462A4619
:1048C00001460090204601F07BFF064656B900BF26
:1048D000502080F31188BFF34F8FBFF36F8F00BF5D
:1048E00000BFFEE705E094F8280020F0010084F8FE
:1048F00028002046216A8847F8BD000010010020EA
:10490000F0B587B0A0E00398002811DA04AE56B9DC
:1049100000BF502080F31188BFF34F8FBFF36F8F1C
:1049200000BF00BFFEE7D6E90020B168904700BF96
:1049300003980028E6DB059C606908B9012000E0C7
:10494000002010B9201D00F00DFB02A800F0DEF8D9
:10495000054603980A2875D2DFE800F009050739F3
:10496000416306083A4200BF00BF00BF00BF94F891
:10497000280040F0010084F828000498A2698118FA
:1049800003462A462046FFF739FFF8B12046216A40
:10499000884794F8280000F00400B8B10020009087
:1049A0000498A169421800231946204601F008FF27
:1049B000074657B900BF502080F31188BFF34F8FCF
:1049C000BFF36F8F00BF00BFFEE700BF3BE000BF3B
:1049D00094F8280020F0010084F8280033E000BF9C
:1049E00094F8280040F0010084F828000498A061A1
:1049F000A06908B1012000E0002050B900BF50209C
:104A000080F31188BFF34F8FBFF36F8F00BF00BFDC
:104A1000FEE7A06941192B462A462046FFF7EEFE25
:104A200011E094F8280000F0020018B9204600F0C8
:104A300039FD05E094F8280020F0010084F82800F2
:104A400001E0FFE700BF00BF002203A9044800689F
:104A500001F0B2FA00287FF456AF07B0F0BD0000B5
:104A600018010020F8B505460C4600F0D1FE684656
:104A700000F04CF80646009820BB44B9B54206D871
:104A800001F0E0FD31462846FFF700FF1CE03CB195
:104A90000E480068006808B9012000E000200446C4
:104AA000A91B22460A48006800F0B4FD01F0CAFDC7
:104AB00050B94FF0805007490860BFF34F8FBFF3E4
:104AC0006F8F01E001F0BEFDF8BD00001401002071
:104AD0001801002004ED00E00A490968096809B9D5
:104AE000012100E0002121B14FF0FF31064A1160A1
:104AF00006E004490968C968C868034A416811604A
:104B000070470000D80000200401002070B5044662
:104B100001F052FC054607480068854204D200F0C7
:104B20000BF80120206001E00020206001480560B2
:104B3000284670BD200100202DE9F84334E02548C7
:104B40000068C068056823480068C068C468201D04
:104B500000F008FA2046216A884794F8280000F0FF
:104B6000040008B3A0694619AE4207D96660246103
:104B7000211D1848006800F0E1FA15E00020034606
:104B80002A4601460090204601F01AFE074657B912
:104B900000BF502080F31188BFF34F8FBFF36F8F9A
:104BA00000BF00BFFEE700BF0A480068006808B900
:104BB000012000E000200028C1D00648D0F8008085
:104BC00005480068034908600348C0F80080BDE854
:104BD000F883000010010020140100200E48006836
:104BE000401C08B9012000E0002050B900BF50204F
:104BF00080F31188BFF34F8FBFF36F8F00BF00BFEB
:104C0000FEE700BF502080F31188BFF34F8FBFF342
:104C10006F8F00BF00BFFEE74801002008B500BF4E
:104C20006846FFF7A9FC044620460099FFF71AFFE3
:104C3000FFF766FEF4E770B5044600F0EBFB94F96D
:104C4000455010E0606A08B9012000E0002038B942
:104C500004F1240001F0AAFC18B100F03BFD00E0D3
:104C600003E0681E45B2002DECDC00BFFF2084F895
:104C7000450000F0F9FB00F0CDFB94F9445010E042
:104C8000206908B9012000E0002048B904F11000B3
:104C900001F08CFC08B100F01DFD681E45B200E07B
:104CA00001E0002DECDC00BFFF2084F8440000F0A0
:104CB000DBFB70BD2DE9F04104464FF0000800F029
:104CC000A7FD4948006808B9FFF76AFC4748006833
:104CD0002040002870D1D4B1083404F00700B0B1EE
:104CE00004F00700C0F10800044404F0070008B90C
:104CF000012000E0002050B900BF502080F311884F
:104D0000BFF34F8FBFF36F8F00BF00BFFEE7002CD4
:104D100052D03748006884424ED8364E3046056837
:104D200001E02E462D686868A04202D2286800285B
:104D3000F7D12D48006885423ED0306800F1080860
:104D4000286830606868001B102819D92F1907F0EF
:104D5000070008B9012000E0002050B900BF502032
:104D600080F31188BFF34F8FBFF36F8F00BF00BF79
:104D7000FEE76868001B78606C603846FFF70AFD44
:104D80001B4968680968081A1949086008460068DC
:104D900019490968884203D2154800681649086015
:104DA0001249686809680843686000202860134851
:104DB0000068401C1149086001F044FC08F007003D
:104DC00008B9012000E0002050B900BF502080F356
:104DD0001188BFF34F8FBFF36F8F00BF00BFFEE797
:104DE0004046BDE8F0810000300100204401002071
:104DF0003401002028010020380100203C0100205F
:104E0000001F4FF080730360001F21F00103036057
:104E1000001F034B03601438026020387047000005
:104E2000DD4B000830B501460E480068426B0D4866
:104E30000068836B0B480068C46B0A480068056C07
:104E4000012901D1104630BD022901D11846FAE7E7
:104E5000032901D12046F6E7042901D12846F2E7CB
:104E60000020F0E73002002070B5054601F0C4FFD5
:104E7000044620F00040C0F1FF40C00F08D025F0EC
:104E80000040C0F1FF40C00F04BF0120FBF72BFB27
:104E9000204670BD10B501240BE061000A230322F7
:104EA0000648FCF7A9F810B96006000E10BD601C9A
:104EB000C4B2802CF1DB0020F8E700005401002090
:104EC00008B50020009069467520FFF737F808B153
:104ED000002008BD9DF80000682801D10120F8E7F6
:104EE0000020F6E70C4800780C4A1278904201D175
:104EF000002070470A48084A1278815C064A1278F6
:104F0000501CC21700EB5272D210A0EBC202024B2F
:104F10001A700846EDE700008200002081000020A2
:104F20007900002010B50446062C16D2DFE804F004
:104F30000306090C0F12FEF7C7FA11E0FEF76EFA2E
:104F40000EE0FEF79FFA0BE0FEF7D0FA08E0FEF75E
:104F500077FA05E0FEF740FA02E0FEF7E9FA00BF53
:104F600000BF10BD01460A69D1E901309860D1E95E
:104F7000010358605068884201D188685060002061
:104F800008611068401E106010687047034B036092
:104F9000034B0B608023136070470000EC08002077
:104FA00048090020034B0360034B0B604FF48073F0
:104FB00013607047480B0020A40B002030B587B069
:104FC00000F08EFC04464FF0FF33002204A94F4846
:104FD0000068FFF731F800BF00231A4604A94B48C8
:104FE0000068FFF729F80028F6D09DF8180000287F
:104FF0007ED00598FEF747FE58B90598FEF739FEB2
:1050000038B90498FEF73FFE18B90498FEF731FE50
:1050100008B107B030BD059801F04AFD05462A46A3
:105020003BA16846FBF740F93A49886AFBF7C0F9AB
:1050300085B2384864232A46816A3748FDF7E6FB83
:105040006846FBF7B5F985B264232A4669463248BB
:10505000FDF7DCFB2F49486AFBF7AAF985B22D481A
:1050600064232A46416A2C48FDF7D0FB049801F0DE
:105070001FFD05462A4626A16846FBF715F9254976
:10508000C86AFBF795F985B2224864232A46C16AAB
:105090002148FDF7BBFB6846FBF78AF985B264231C
:1050A0002A4669461C48FDF7B1FB1A49486AFBF7D6
:1050B0007FF985B2174864232A46416A1648FDF7EE
:1050C000A5FB144951F82400FBF772F985B2114889
:1050D00050F8241064232A460F48FDF797FB20461A
:1050E000FFF720FF0B49086AFBF762F985B200E081
:1050F00007E0084864232A46016A0748FDF786FB53
:1051000001E0FEF715FA00BF83E700004000002031
:1051100025640000940000207802002000F10801BE
:1051200041604FF0FF31816000F10801C160016111
:1051300000210160704700210161704710B50246EF
:105140000B685C1C0CB9106907E002F1080000E074
:105150004068446824689C42FAD944684C604C68B2
:10516000A160886041600A611468641C146010BD0D
:1051700042684A6093688B609368596091600861E7
:1051800003685B1C036070471CB5FFF799FE019034
:105190009DF80400FFF77EFE00909DF800000021BE
:1051A0006B2000F023F90721192000F01FF90021DE
:1051B0001A2000F01BF918211B2000F017F900211C
:1051C0001C2000F013F91CBD3EB5044664200E21DE
:1051D0001F4A0123CDE9002102903B22D0211D4826
:1051E000FBF7E6FF08B100203EBD1948407818499A
:1051F000097840EA012000B220801548C07814499F
:10520000897840EA012000B2608011484079104955
:10521000097940EA012000B2A0800D48407A0C498B
:10522000097A40EA012000B2E0800948C07A0849C2
:10523000897A40EA012000B220810548407B044978
:10524000097B40EA012000B260810120CCE7000028
:10525000C0020020540100202DE9F04F8BB004461D
:105260000D461746B4F9000001F05EFC4FF08D4189
:10527000069001F05BFB0A90B4F9020001F054FCC7
:105280004FF08D41069001F051FB8046B4F90400C7
:1052900001F04AFC4FF08D41069001F047FB81463A
:1052A000B4F9060001F040FC4A49069001F03EFBCB
:1052B0000990B4F9080001F037FC4649069001F066
:1052C00035FB0890B4F90A0001F02EFC4149069024
:1052D00001F02CFB079049464046FEF701FD3E4990
:1052E000069001F081FC82464946484601F07CFC6C
:1052F00041460290404601F077FC0190029901F08E
:10530000A1FA0390FFF7B0FD05900A9880F00040E5
:1053100004900599FEF7E4FC2F49069001F064FC27
:1053200083462E48007840B12D48C0F800A02D4893
:10533000C0F800B00020294908703946099801F0EA
:1053400053FC069026480168069801F07BFA244930
:1053500008603946089801F047FC0690214801682A
:10536000069801F06FFA1F4908601F4E31464FF052
:105370007E5001F0C9FD5146049001F035FC0690C5
:1053800017480168304601F02FFC0590069901F09E
:1053900059FA1349086031464FF07E5001F0B4FDD0
:1053A0005946049001F020FC06900E4801683046F2
:1053B00001F01AFC0590069901F044FA09490860C9
:1053C0000748006828600846006868600BB0BDE8C0
:1053D000F08F000033338341333365429000002067
:1053E000880000208C00002048E17A3F13B584B08B
:1053F00004464FF0FF30012105AA0B46CDE90021FC
:1054000002902246D0210248FCF78CF806B010BD6D
:105410005401002000BF502080F31188BFF34F8F4C
:10542000BFF36F8F00BF0E480068401C0C49086036
:1054300008460068012812D10A480068C0B208B9BD
:10544000012000E0002050B900BF502080F31188F7
:10545000BFF34F8FBFF36F8F00BF00BFFEE77047F2
:105460004801002004ED00E00D48006850B900BF7D
:10547000502080F31188BFF34F8FBFF36F8F00BFB1
:1054800000BFFEE706480068401E05490860084660
:10549000006820B9002080F3118800BF00BF70476A
:1054A0004801002070B506463546002E44D0083D20
:1054B0002C46224960680968084008B1012000E0D4
:1054C000002050B900BF502080F31188BFF34F8FE8
:1054D000BFF36F8F00BF00BFFEE7206808B901204F
:1054E00000E0002050B900BF502080F31188BFF3C6
:1054F0004F8FBFF36F8F00BF00BFFEE70F4960689B
:1055000009680840C0B12068B0B90C4960680968F2
:105510008843606000F07CF90949606809680844C4
:10552000074908602046FFF735F906480068401C27
:105530000449086001F086F870BD000044010020B5
:10554000340100204001002000204FF0E0210861DC
:105550008861064800684FF47A71B0FBF1F0401E94
:105560004FF0E0214861072008617047D00000201B
:1055700070B5FAF775FE0446102C16D304F1E0203E
:1055800090F8F05315480078854201DB012000E0D7
:10559000002050B900BF502080F31188BFF34F8F17
:1055A000BFF36F8F00BF00BFFEE70D48006800F437
:1055B000E0600C490968884201D8012000E0002021
:1055C00050B900BF502080F31188BFF34F8FBFF355
:1055D0006F8F00BF00BFFEE770BD00004C010020D0
:1055E0000CED00E050010020024600200BE0084BCB
:1055F00053F8303033B9064B43F8301003EBC00397
:105600005A6002E0401C0828F1D300BF7047000038
:10561000D00200202DE9F04105460E4617462C46E3
:10562000FFF7F8FE94F94400401C10B9002084F8FC
:10563000440094F94500401C10B9002084F845004E
:10564000FFF712FFA06B28B93A46314604F1240057
:1056500000F062F82046FFF7EEFABDE8F0810000A6
:1056600070B504460025D4B11248006808B901207D
:1056700000E0002050B900BF502080F31188BFF334
:105680004F8FBFF36F8F00BF00BFFEE700F0C0F881
:1056900000212046FEF7FCFD00F0D4FF05463DB991
:1056A0004FF0805004490860BFF34F8FBFF36F8FF6
:1056B00070BD00000C01002004ED00E00349096802
:1056C000016003490968416070470000FC00002048
:1056D000E80000200120014908607047F800002020
:1056E00070B504460D4654B900BF502080F31188B0
:1056F000BFF34F8FBFF36F8F00BF00BFFEE70548BA
:10570000016818312046FFF719FD01212846FEF7F0
:10571000BFFD70BDD400002070B505460E4614468E
:1057200055B900BF502080F31188BFF34F8FBFF3EE
:105730006F8F00BF00BFFEE706480168183128469A
:10574000FFF716FD0CB14FF0FF3621463046FEF74D
:105750009FFD70BDD400002010B586B000200590DC
:10576000049003AA04A905A8FFF710FC0022DDE9B4
:1057700004101346CDE9002102901EA11F48039A90
:1057800000F0ACFD1E4908600846006808B101241D
:1057900000E00024012C02D100F0D6FF0446012CC9
:1057A00015D100BF502080F31188BFF34F8FBFF396
:1057B0006F8F00BF4FF0FF3012490860012012497F
:1057C000086000201149086000F024F910E0601C16
:1057D00008B1012000E0002050B900BF502080F344
:1057E0001188BFF34F8FBFF36F8F00BF00BFFEE77D
:1057F00006B010BD49444C45000000001D4600089D
:105800000801002004010020F0000020E800002032
:1058100002480068401C0149086070470C010020E4
:105820001E48006818B101201D49086034E00020BE
:105830001B4908601B4801680CE051B900BF5020AB
:1058400080F31188BFF34F8FBFF36F8F00BF00BF8E
:10585000FEE7491E01EB8100134A52F8200008B907
:10586000012000E000200028E7D101EB81020E4B6F
:1058700003EB820042685268426000F1080243680C
:10588000934202D14268526842604268D268074B34
:105890001A600448016000BF704700000C0100203E
:1058A000F8000020EC00002010030020D4000020AD
:1058B00010B50020054908700549087005490870B1
:1058C000012205490548FCF739FF10BD830000207F
:1058D0008100002082000020780000207802002053
:1058E00010B5FFF7FFFA044614B90B48007810BD55
:1058F000012C05DB062C03DC601E0749087007E05D
:10590000072C03D106200449087001E00720EEE7C8
:1059100001480078EBE700008400002001460A4BB4
:105920001B78581CC31700EB5373DB10A0EBC303A9
:10593000DAB206480078824205D00548024B1B784F
:10594000C15401480270704781000020820000208D
:105950007900002030B585B0104C02A8FFF734FC68
:1059600068B90F49C86AFAF723FD85B20C48642369
:105970002A46C16A0B48FCF749FF05B030BD2246F4
:10598000694602A8FFF768FC00231A4669460648E4
:105990000068FEF7DFFB00BFEFE700000AD7233CFB
:1059A00094000020780200204400002010B586B04A
:1059B0004FF0FF33002204A914480068FEF73CFBB7
:1059C00000BF00231A4604A910480068FEF734FB04
:1059D0000028F6D0059802900498019004A8FAF7E0
:1059E00091FE04461CB901208DF80C0002E0002055
:1059F0008DF80C0000231A4601A905480068FEF73F
:105A0000A9FB0A20FEF7C2FA06B010BD4400002030
:105A1000400000201CB53849084600780190FF205E
:105A20000A4610700846007800909DF8000000F0CB
:105A3000F0009DF80020904201D1012000E00020FC
:105A400050B900BF502080F31188BFF34F8FBFF3D0
:105A50006F8F00BF00BFFEE79DF8000000F0500010
:105A6000264A10700720264A106009E02448006882
:105A7000401E234A10609DF800004006000E009072
:105A80009DF8000000F080008028EFD01C480068DE
:105A9000C0F10700042801D1012000E0002050B926
:105AA00000BF502080F31188BFF34F8FBFF36F8F7B
:105AB00000BF00BFFEE7124800680002104A1060F5
:105AC0001046008800F4E06010600B4A01981070E6
:105AD0000C48006840F470000A49086008460068F5
