:020000040800F2
:10000000B025002021020008F92B0008F522000885
:10001000F52B0008D9040008793200080000000020
:10002000000000000000000000000000890100083E
:10003000FD04000800000000CD010008432C00086A
:100040003B0200083B0200083B0200083B0200089C
:100050003B0200083B0200083B0200083B0200088C
:100060003B0200083B0200083B0200083B0200087C
:100070003B0200083B0200083B0200083B0200086C
:10008000DD040008ED0400083B0200083B02000804
:100090003B0200083B0200083B0200083B0200084C
:1000A0003B0200083B0200083B0200083B0200083C
:1000B0003B0200083B0200083B0200083B0200082C
:1000C0003B0200083B0200083B0200083B0200081C
:1000D0003B020008693200083B0200083B020008AE
:1000E0003B0200083B0200083B02000800F002F857
:1000F00000F03AF80AA090E8000C82448344AAF188
:100100000107DA4501D100F02FF8AFF2090EBAE885
:100110000F0013F0010F18BFFB1A43F0010318473B
:100120007465000094650000103A24BF78C878C157
:10013000FAD8520724BF30C830C144BF04680C60ED
:10014000704700000023002400250026103A28BF35
:1001500078C1FBD8520728BF30C148BF0B60704739
:100160001FB51FBD10B510BD00F078F91146FFF79F
:10017000F7FF03F0EBF900F096F903B4FFF7F2FF95
:1001800003BC00F099F90000224B19680868B0E838
:10019000F00F80F30988BFF36F8F4FF0000080F3FA
:1001A00011884EF00D0E70470000000006480068F0
:1001B000006880F3088862B661B6BFF34F8FBFF363
:1001C0006F8F00DF00BF00BF08ED00E0EFF3098094
:1001D000BFF36F8F0F4B1A6820E9F00F106008B55E
:1001E0004FF0500080F31188BFF34F8FBFF36F8F34
:1001F00004F088FD4FF0000080F31188BDE808404E
:1002000019680868B0E8F00F80F30988BFF36F8FB2
:10021000704700BF80000020EFF3058070470000AA
:100220000948804709480047FEE7FEE7FEE7FEE78A
:10023000FEE7FEE7FEE7FEE7FEE7FEE704480549C6
:10024000054A064B70470000A72C0008ED00000887
:10025000B01F0020B0250020B0210020B0210020D8
:1002600010B5431C02E010F8011B71B18107FAD1EF
:100270004FF0013202C88C1A8C4314EAC211F9D033
:10028000C01A0A0603D0C01E10BDC01A10BD0A0451
:1002900001D0801E10BD0902FCD0401E10BD032AF3
:1002A00040F2308010F0030C00F0158011F8013B93
:1002B000BCF1020F624498BF11F801CB00F8013B7A
:1002C00038BF11F8013BA2F1040298BF00F801CB3E
:1002D00038BF00F8013B11F0030300F06280083AD8
:1002E000C0F0088051F8043B083A51F804CBA0E86C
:1002F0000810F5E7121D5CBF51F8043B40F8043BC1
:10030000AFF30080D20724BF11F8013B11F801CBF5
:1003100048BF11F8012B24BF00F8013B00F801CBC6
:1003200048BF00F8012B704702F0FF0343EA0322A5
:1003300042EA024200F069B84FF0000200B51346ED
:1003400094469646203922BFA0E80C50A0E80C50F5
:10035000B1F12001BFF4F7AF090728BFA0E80C50A6
:1003600048BF0CC05DF804EB890028BF40F8042B9F
:1003700008BF704748BF20F8022B11F0804F18BF0C
:1003800000F8012B704770477047704710B500F0B8
:100390005DF8006810BD10B5044600F057F8046021
:1003A00010BD10B5203AC0F00B80B1E81850203ACB
:1003B000A0E81850B1E81850A0E81850BFF4F5AF05
:1003C0005FEA027C24BFB1E81850A0E8185044BF8F
:1003D00018C918C0BDE810405FEA827C24BF51F8FC
:1003E000043B40F8043B08BF7047D20728BF31F8F0
:1003F000023B48BF11F8012B28BF20F8023B48BF41
:1004000000F8012B70474FF000020429C0F0128061
:1004100010F0030C3FF492AFCCF1040CBCF1020FCE
:1004200018BF00F8012BA8BF20F8022BA1EB0C018C
:10043000FFF784BF5FEAC17C24BF00F8012B00F8FE
:10044000012B48BF00F8012B70470000004870479F
:10045000501F002000487047501F00207546FFF7CE
:10046000F9FFAE4605006946534620F00700854671
:1004700018B020B5FFF7E2FEBDE820404FF00006BF
:100480004FF000074FF000084FF0000B21F007017C
:10049000AC46ACE8C009ACE8C009ACE8C009ACE8BF
:1004A000C0098D46704710B50446AFF30080204662
:1004B000BDE81040FFF761BE01491820ABBEFEE762
:1004C00026000200704704F065FC00BF04F068F8E5
:1004D0000A2003F051F8F9E700BFFEE710B5024823
:1004E00000F094F810BD00009801002010B50248FB
:1004F00000F08CF810BD000054010020704772B667
:1005000000BFFEE70146002291F82100022808D032
:100510000420886300BF002081F8200000BF012074
:1005200070470868006820F00E000B6818600868C3
:10053000006820F001000B68186091F8403001203D
:100540009840CB6B5860012081F8210000BF00204B
:1005500081F8200000BF1046E2E7000070B50446B5
:10056000002594F82100022803D00420A06301256F
:1005700048E02068006820F00E00216808602068CC
:10058000006820F00100216808601F492068884247
:1005900001D1012026E01C4914312068884201D194
:1005A00010201FE0184928312068884201D18015A9
:1005B00018E015493C312068884201D1801411E0CF
:1005C000114950312068884202D14FF4803009E04F
:1005D0000D4964312068884202D14FF4801001E057
:1005E0004FF08070084908394860012084F82100E4
:1005F00000BF002084F8200000BF606B10B12046CF
:10060000616B8847284670BD0800024070B50446FB
:10061000E06B05682068066894F840100420884064
:100620002840002846D006F00400002842D0206868
:10063000006800F0200028B92068006820F004005D
:100640002168086057492068884201D1042027E0CA
:10065000544914312068884201D1402020E051499A
:1006600028312068884201D1001519E04D493C31FC
:100670002068884202D14FF4804011E0494950314E
:100680002068884202D14FF4802009E04549643156
:100690002068884202D14FF4800001E04FF0806072
:1006A000404908394860E06A00287AD02046E16A6B
:1006B000884776E094F84010022088402840A0B394
:1006C00006F0020088B32068006800F0200040B9FE
:1006D0002068006820F00A0021680860012084F882
:1006E000210030492068884201D1022028E02D49AC
:1006F00014312068884201D1202021E02949283185
:100700002068884201D140151AE026493C31206812
:10071000884202D14FF4005012E022495031206843
:10072000884203D14FF400300AE017E01D496431DC
:100730002068884202D14FF4001001E04FF00070B1
:1007400018490839486000BF002084F8200000BF25
:10075000A06A30B32046A16A884722E094F840108E
:10076000082088402840E0B106F00800C8B12068A1
:10077000006820F00E002168086094F84010012005
:100780008840E16B48600120A06384F8210000BF2D
:10079000002084F8200000BF206B10B12046216BA0
:1007A000884770BD080002400146002209B90120B7
:1007B0007047164B0868C01A1423B0FBF3F0800092
:1007C000086412480838C863022081F821000868CC
:1007D000026843F6F0708243D1E901031843CB6805
:1007E00018430B6918434B6918438B691843CB694D
:1007F000184302430868026000208863012081F8E2
:100800002100002081F8200000BFD1E7080002404D
:1008100070B5044600F0A6F906462546681C10B1DE
:1008200004480078054400BF00F09CF9801BA842F2
:10083000FAD370BD780000202DE9F8470346002266
:1008400094466EE14FF0010808FA02F4D1F80080F6
:1008500008EA0400A0427DD1DFF8DCA2D1F80480D0
:10086000A8EB0A09D0453AD014DCB8F1030F50D0F8
:1008700009DCB8F1000F31D0B8F1010F1CD0B8F18C
:10088000020F49D120E0B8F1110F18D0B8F1120FC2
:1008900042D11EE0B9F5881F25D006DCB9F5803FAE
:1008A00020D0B9F5801F37D11AE0B9F5001F18D054
:1008B000B9F5041F30D117E0D1F80CC02DE0D1F804
:1008C0000C8008F1040C28E0D1F80C8008F1080C29
:1008D00023E0D1F80C8008F10C0C1EE000BF00BF33
:1008E00000BF00BF00BF00BFD1F80880B8F1000F03
:1008F00002D14FF0040C0BE0D1F80880B8F1010FE1
:1009000003D14FF0080C1C6102E04FF0080C5C6151
:1009100003E04FF0000C00E000BF00BFFF2801D84B
:10092000984601E003F104084646FF2802D84FEA42
:10093000820803E0A2F108084FEA88084746D6F883
:1009400000804FF00F0909FA07F928EA09080CFAA4
:1009500007F900E088E048EA0908C6F80080D1F805
:10096000048008F08058B8F1805F7DD100BFDFF8C7
:10097000CC81D8F8188048F00108DFF8C091C9F898
:100980001880C846D8F8188008F00108CDF8008013
:1009900000BF00BF4FEAB9384FEA920958F8295012
:1009A0004FEA82784FEA18794FF00F0808FA09F8F1
:1009B00025EA0805DFF88881434502D14FF0000899
:1009C00016E0DFF88081434502D14FF001080FE0C7
:1009D000DFF87481434502D14FF0020808E0DFF8E8
:1009E0006C81434502D14FF0030801E04FF0040849
:1009F0004FEA82794FEA197908FA09F848EA0505B9
:100A0000DFF84C814FEA920948F82950D1F8048068
:100A100008F48018B8F5801F0AD1DFF83881D8F8BB
:100A2000008048EA0008DFF82C91C9F8008009E04E
:100A3000DFF82081D8F8008028EA0008DFF8149158
:100A4000C9F80080D1F8048008F40018B8F5001F38
:100A500010D1DFF8008108F10408D8F8008048EAD6
:100A60000008DFF8F09000E05AE009F10409C9F845
:100A700000800DE0DFF8DC8008F10408D8F8008081
:100A800028EA0008DFF8CC9009F10409C9F80080D1
:100A9000D1F8048008F40038B8F5003F0ED1DFF833
:100AA000B480A8F10408D8F8008048EA0008DFF80C
:100AB000A490A9F10409C9F800800DE0DFF8948042
:100AC000A8F10408D8F8008028EA0008DFF884902C
:100AD000A9F10409C9F80080D1F8048008F480382D
:100AE000B8F5803F0ED1DFF86C80A8F10808D8F87F
:100AF000008048EA0008DFF85C90A9F10809C9F80D
:100B000000800DE0DFF84C80A8F10808D8F80080DC
:100B100028EA0008DFF83C90A9F10809C9F800802C
:100B2000521CD1F8008028FA02F8B8F1000F7FF4C7
:100B300089AEBDE8F88700000000111000100240E7
:100B400000080140000C0140001001400014014069
:100B500008000140080401400AB1016101E00B04F2
:100B60000361704701480068704700007000002072
:100B700070B504460CB9012070BD94F83D0028B949
:100B8000002084F83C00204600F046FB242084F836
:100B90003D002068006820F001002168086020689E
:100BA000006840F40040216808602068006820F474
:100BB00000402168086000F047FD05465C49606818
:100BC000884206D85B48854201D2012007E0002018
:100BD00005E05948854201D2012000E000200128AB
:100BE00000D1C9E75548B5FBF0F62068406820F011
:100BF0003F003043216848604D496068884201D811
:100C0000701C07E04FF4967070434FF47A71B0FB9C
:100C1000F1F0401C2168096A21F03F010843216876
:100C2000086243496068884214D8681E61684900B8
:100C3000B0FBF1F0401CC0F30B00042801D20420EB
:100C40003DE0681E61684900B0FBF1F0401CC0F354
:100C50000B0034E0A06838B9681E616801EB4101FF
:100C6000B0FBF1F0401C0AE0681E616801EBC102B4
:100C700002EB0111B0FBF1F0401C40F48040C0F3E6
:100C80000B0008B901201AE0A06848B9681E616825
:100C900001EB4101B0FBF1F0401CC0F30B000CE094
:100CA000681E616801EBC10202EB0111B0FBF1F0BB
:100CB000401CC0F30B0040F4804040F40040216829
:100CC000C9694CF6FF72914308432168C861D4E9B1
:100CD000070108432168096821F0C0010843216821
:100CE0000860D4E9031008432168896848F2FF329C
:100CF0009143084321688860D4E9050108432168CD
:100D0000C96821F0FF0108432168C86020680068B5
:100D100040F001002168086000202064202084F851
:100D20003D000020206384F83E0000BF24E700005F
:100D3000A086010080841E0000093D0040420F0093
:100D40002DE9FE4F04460F4690469946DDE90CAB6F
:100D50000E9E00200290FFF705FF054694F83D0027
:100D6000202872D119230122CE492046009501F096
:100D700036FC10B10220BDE8FE8F00BF94F83C00A5
:100D8000012801D10220F6E7012084F83C0000BFD1
:100D90002068006800F0010028B92068006840F071
:100DA0000100216808602068006820F40060216864
:100DB0000860222084F83D00402084F83E00002096
:100DC0002064C4F824A0A4F82AB0608D2085B64819
:100DD000E0624B46424639462046CDE9006501F0C7
:100DE000ABFA08B10120C6E7208D88B900BF00200A
:100DF000019020684069019020688069019000BFDF
:100E000000BF2068006840F40070216808604BE073
:100E1000208D01281AD12068006820F480602168A4
:100E2000086072B600BF0020019020684069019000
:100E300020688069019000BF00BF2068006840F40E
:100E400000702168086062B62EE029E1208D02283A
:100E500019D12068006840F400602168086072B60B
:100E600000BF0020019020684069019020688069DF
:100E7000019000BF00BF2068006820F480602168F6
:100E8000086062B610E02068006840F48060216865
:100E9000086000BF00200190206840690190206830
:100EA0008069019000BF00BFEBE0208D03287DD852
:100EB000208D012815D12A463146204601F06BFCD1
:100EC00008B1012057E720680069616A0870606A0C
:100ED000401C6062208D401E2085608D401E608514
:100EE000CFE0208D02282CD1334600226F492046C6
:100EF000009501F074FB08B101203CE772B6206850
:100F0000006840F400702168086020680069616A28
:100F10000870606A401C6062208D401E2085608DD4
:100F2000401E608562B620680069616A0870606A68
:100F3000401C6062208D401E2085608D401E6085B3
:100F40009FE03346002259492046009501F047FBB7
:100F500008B101200FE72068006820F48060216854
:100F6000086072B620680069616A0870606A401C97
:100F70006062208D401E2085608D401E60854C483B
:100F800000681921B0FBF1F04FF47A71B0FBF1F079
:100F9000C0EBC00000EB8000029000BF0298401E32
:100FA00002900298A8B90020206300E039E02020D8
:100FB00084F83D00002084F83E00206C40F02000C2
:100FC000206462B600BF002084F83C0000BF01200E
:100FD000D1E620684069C0F380000028DED0206898
:100FE000006840F400702168086020680069616A48
:100FF0000870606A401C6062208D401E2085608DF4
:10100000401E608562B620680069616A0870606A87
:10101000401C6062208D401E2085608D401E6085D2
:101020002FE02A463146204601F0B5FB08B10120E9
:10103000A1E620680069616A0870606A401C60620D
:10104000208D401E2085608D401E6085206840698F
:10105000C0F38000A8B1208D032805D12068006866
:1010600020F480602168086020680069616A087067
:10107000606A401C6062208D401E2085608D401E8D
:101080006085208D00287FF410AF202084F83D007B
:10109000002084F83E0000BF84F83C0000BF6AE6F0
:1010A000022068E6020010000000FFFF04000100BB
:1010B0007C0000202DE9FC5F04460F4690469946CF
:1010C000DDE90CAB0E9EFFF74DFD054694F83D00A3
:1010D00020287DD1192301224D492046009501F099
:1010E0007EFA10B10220BDE8FC9F00BF94F83C00DE
:1010F000012801D10220F6E7012084F83C0000BF5E
:101100002068006800F0010028B92068006840F0FD
:101110000100216808602068006820F400602168F0
:101120000860212084F83D00402084F83E00002023
:101130002064C4F824A0A4F82AB0608D2085354826
:10114000E0624B46424639462046CDE9006501F053
:10115000A3F908B10120C6E731E02A46314620460E
:1011600001F05EFB50B1206C042805D120680068B6
:1011700040F40070216808600120B4E7606A0078DC
:1011800021680861606A401C6062208D401E2085D5
:10119000608D401E608520684069C0F3800070B19A
:1011A000208D60B1606A007821680861606A401C27
:1011B0006062208D401E2085608D401E6085208DE0
:1011C0000028CAD12A463146204601F0D5F900E070
:1011D0001CE050B1206C042805D12068006840F460
:1011E00000702168086001207DE72068006840F4F5
:1011F000007021680860202084F83D00002084F8F9
:101200003E0000BF84F83C0000BF6CE702206AE7A4
:10121000020010000000FFFF10B586B00446002059
:1012200002900390049005902F492068884258D17D
:1012300000BF2E48806940F008002C4988610846AC
:10124000806900F00800019000BF00BFC02002903C
:10125000122003900320059002A92548FFF7ECFA1D
:1012600000BF2248C06940F400102049C861084608
:10127000C06900F40010019000BF00BF1D481E4966
:1012800008600020486000211B4881608021C16007
:101290000021016141618161C161FFF785FA08B1F7
:1012A000FFF72DF900BF1448A063446200BF114846
:1012B0001438124908601020486000210F488160EE
:1012C0008021C1600021016141618161C161FFF73D
:1012D0006BFA08B1FFF713F900BF08486063446276
:1012E00000BF06B010BD00000054004000100240D6
:1012F000000C0140800002405401002098010020B1
:1013000003480068034909780844014908607047A8
:10131000700000207800002010B50848006840F0F8
:10132000100006490860032000F0AEF80F2000F01E
:1013300007F800F02BF8002010BD0000002002404C
:1013400070B504460E4800784FF47A71B1FBF0F0A6
:101350000C490968B1FBF0F5284600F0FFFB08B125
:10136000012070BD102C07D200222146501E00F033
:101370004DF80548046001E00120F2E70020F0E7A5
:10138000780000207C0000207400002008B500BF19
:101390001448806940F0010012498861084680695C
:1013A00000F00100009000BF00BF00BF0846C06908
:1013B00040F08050C8610846C06900F0805000903D
:1013C00000BF00BF00220F21901E00F01FF800BFD9
:1013D0000549486820F0E06040F00070486000BFB8
:1013E00008BD000000100240000001400146084610
:1013F000002809DB00F01F0301229A4043099B00EB
:1014000003F1E023C3F8002100BF70472DE9F05F2E
:1014100080460D461646002701F044FF0746394630
:101420002A46334601F00700C0F1070ABAF1040F5B
:1014300002D94FF0040A01E0C0F1070AD14600F1D9
:10144000040ABAF1070F02D24FF0000A01E0A0F13E
:10145000030AD4464FF0010A0AFA09FAAAF1010A6E
:101460000AEA020A0AFA0CFA4FF0010B0BFA0CFB1B
:10147000ABF1010B0BEA030B4AEA0B042146404691
:1014800001F018FFBDE8F09F00BF00F00702064B17
:1014900019684FF6FF031940044B0B4343EA02213E
:1014A000014B196000BF70470CED00E00000FA0529
:1014B00070B504460D460CB9012070BD5A4800684D
:1014C00000F00700A8420ED25748006820F007003D
:1014D0002843554908600846006800F00700A84204
:1014E00001D00120E9E7207800F0020002281DD198
:1014F000207800F00400042805D14C48406840F4EE
:10150000E0604A494860207800F00800082805D1CA
:101510004648406840F46050444948604348406849
:1015200020F0F000A168084340494860207800F0AE
:10153000010078B36068012806D13C48006800F4D7
:10154000003090B90120B8E76068022806D137481A
:10155000006800F0007040B90120AEE73348006831
:1015600000F0020008B90120A7E73048406820F0E9
:101570000300616808432D494860FFF7F3FA064607
:1015800009E0FFF7EFFA801B41F28831884202D967
:10159000032092E707E02548406800F00C006168EE
:1015A000B0EB810FEDD12048006800F00700A842A1
:1015B0000ED91D48006820F0070028431A4908602A
:1015C0000846006800F00700A84201D0012074E737
:1015D000207800F00400042807D11448406820F463
:1015E000E060E168084311494860207800F0080095
:1015F000082808D10D48406820F46050216940EA6D
:10160000C1000A49486000F03FF808494968C1F341
:101610000311074A515CC840064908600648006843
:10162000FFF78EFE002048E7002002400010024035
:10163000DE6500087C00002074000020014800687E
:10164000704700007C00002000B5FFF7F7FF044959
:101650004968C1F30221034A515CC84000BD000043
:1016600000100240EE65000800B5FFF7E7FF0449EF
:101670004968C1F3C221034A515CC84000BD000063
:1016800000100240EE65000870B500210022002421
:1016900000230020134D696801F00C05F5B1042DFD
:1016A00002D0082D19D101E00F4819E00F4DC1F308
:1016B0008346AB5D01F4803555B10A4D6D68C5F3C5
:1016C00040450B4E725D084D5D43B5FBF2F402E000
:1016D000084D03FB05F4204602E000BF024800BFAE
:1016E00000BF70BD0010024000127A00CC650008F7
:1016F000DC65000800093D00F8B504460CB901207E
:10170000F8BD207800F00100002878D0F848406843
:1017100000F00C0004280CD0F548406800F00C00E4
:10172000082811D1F248406800F48030B0F5803FBD
:101730000AD1EF48006800F4003000285FD06068EC
:1017400000285CD10120DBE700BF6068B0F5803F76
:1017500006D1E748006840F48030E549086028E099
:10176000606858B9E248006820F48030E0490860B9
:101770000846006820F4802008601AE06068B0F530
:10178000A02F0BD1DA48006840F48020D8490860C7
:101790000846006840F4803008600AE0D4480068D9
:1017A00020F48030D24908600846006820F4802088
:1017B000086000BF606888B1FFF7D4F9054606E00D
:1017C000FFF7D0F9401B642801D9032098E7C848E7
:1017D000006800F400300028F2D010E0FFF7C2F9F2
:1017E000054606E0FFF7BEF9401B642801D9032037
:1017F00086E7BF48006800F400300028F2D1207866
:1018000000F00200022857D1B948406800F00C00EF
:1018100050B1B748406800F00C00082818D1B4480F
:10182000406800F4803098B9B148006800F00200C8
:1018300020B12069012801D0012061E7AC4800688F
:1018400020F0F800616940EAC100A949086033E06E
:101850002069E8B10120A7490860FFF783F9054630
:1018600006E0FFF77FF9401B022801D9032047E774
:101870009F48006800F002000028F2D09C480068F1
:1018800020F0F800616940EAC1009949086013E05E
:10189000002098490860FFF765F9054606E0FFF764
:1018A00061F9401B022801D9032029E7904800680C
:1018B00000F002000028F2D1207800F0080008288B
:1018C0002DD1A069B8B101208B490860FFF74AF912
:1018D000054606E0FFF746F9401B022801D9032020
:1018E0000EE78348406A00F002000028F2D0012091
:1018F00001F08CF913E000207F490860FFF732F90E
:10190000054606E0FFF72EF9401B022801D9032007
:10191000F6E67748406A00F002000028F2D120780D
:1019200000F00400042873D100277148C06900F05A
:10193000805070B900BF6E48C06940F080506C495B
:10194000C8610846C06900F08050009000BF00BF29
:1019500001276A48006800F48070B0B967480068E1
:1019600040F4807065490860FFF7FCF8054606E022
:10197000FFF7F8F8401B642801D90320C0E65F4850
:10198000006800F480700028F2D000BFE0680128F1
:1019900006D15748006A40F001005549086227E027
:1019A000E06858B95248006A20F0010050490862C6
:1019B0000846006A20F00400086219E0E068052883
:1019C0000BD14B48006A40F00400494908620846C0
:1019D000006A40F0010008620AE04548006A20F011
:1019E0000100434908620846006A20F004000862CA
:1019F00000BFE068A0B1FFF7B5F8054609E0FFF7C2
:101A0000B1F8401B41F28831884202D9032077E6C1
:101A100022E03748006A00F002000028EFD012E010
:101A2000FFF7A0F8054608E0FFF79CF8401B41F2DD
:101A30008831884201D9032062E62D48006A00F00F
:101A400002000028F0D1012F05D12948C06920F0FB
:101A500080502749C86100BFE069C8B32448406886
:101A600000F00C00082860D0E069022848D100206E
:101A700020490866FFF776F8054606E0FFF772F89A
:101A8000401B022801D903203AE61948006800F0FB
:101A900000700028F2D1206AB0F5803F07D11448C9
:101AA000406820F40030A168084311494860D4E937
:101AB000080108430E49496821F4741108430C4990
:101AC000486001200B490866FFF74CF8054607E01F
:101AD0003DE0FFF747F8401B022801D903200FE63D
:101AE0000348006800F000700028F2D02FE00000EA
:101AF0000010024000004242800442420070004058
:101B0000002014490866FFF72DF8054606E0FFF7A8
:101B100029F8401B022801D90320F1E50E4800688E
:101B200000F000700028F2D111E0E069012800D136
:101B3000E6E50948466806F48031206A814204D10E
:101B400006F47011606A814201D00120D8E50020BE
:101B5000D6E50000000042420010024070B5044685
:101B60002546681EB0F1807F01D301200FE0681E7A
:101B70004FF0E02148610F214FF0FF3001F09AFB58
:101B800000204FF0E021886107200861002070BD2F
:101B900030B502460B4600BF92F83C00012801D147
:101BA000022030BD012082F83C0000BF022082F8F4
:101BB0003D00106844681068816824F0700418685B
:101BC000044310684460104D1068A8420BD01068A0
:101BD000B0F1804F07D00D4D1068A84203D00C4DD6
:101BE0001068A84205D121F08001586801431068AF
:101BF0008160012082F83D0000BF002082F83C0097
:101C000000BF00BFCDE70000002C014000040040F1
:101C10000008004010B586B00446002002900390F2
:101C2000049005902068B0F1804F16D100BF0C4899
:101C3000806940F004000A4988610846806900F024
:101C40000400019000BF00BF0F200290022003900B
:101C5000059002A90348FEF7EFFD06B010BD000095
:101C600000100240000801402DE9F04104460E46F4
:101C70001546002700BF94F83C00012802D102203D
:101C8000BDE8F081012084F83C0000BF35B1042D8F
:101C900009D0082D0CD00C2D14D10EE0314620684F
:101CA00001F044F810E03146206801F06FF80BE0D5
:101CB0003146206801F09EF806E03146206801F0C8
:101CC000CDF801E0012700BF00BF00BF002084F86D
:101CD0003C0000BF3846D3E710B504460CB90120DC
:101CE00010BD94F83D0028B9002084F83C0020463F
:101CF00000F026F8022084F83D00211D206800F045
:101D0000D3FF012084F8460000BF84F83E00012183
:101D10003F200155402001554120015500BF00BF23
:101D2000012084F8420043200155442001554520FC
:101D3000015500BF012084F83D000020D0E70000DD
:101D400008B50168B1F1804F0DD100BF0649C969DE
:101D500041F00101044AD1611146C96901F0010154
:101D6000009100BF00BF08BD0010024070477047DF
:101D70002DE9F84F0446206805682068C668206889
:101D800047694FF00009CA4605F00F09B9F1000F85
:101D90000AD105F0200038B106F0200020B120461D
:101DA00001F0D0F8BDE8F88FB9F1000F7BD007F053
:101DB000010018B906F49070002874D005F00100F5
:101DC00030B106F4807018B1606C40F001006064BE
:101DD00005F0040030B107F0010018B1606C40F06C
:101DE0000200606405F0020030B107F0010018B194
:101DF000606C40F00400606405F0080048B106F033
:101E0000200010B907F0010018B1606C40F0080024
:101E10006064606C002845D005F0200028B106F011
:101E2000200010B1204601F08DF820684069C0F311
:101E3000801A606C00F0080010B9BAF1000F2CD0C5
:101E4000204601F039F82068406900F0400000B3F6
:101E500000BF00BF2168143151E8001F21F040008D
:101E60002168143141E80002002AF3D100BFE06B81
:101E700050B17748E16B4863E06BFEF76FFB88B1C8
:101E8000E06B416B88470DE02046FFF770FF09E0EB
:101E900009E02046FFF76BFF04E02046FFF767FFED
:101EA000002060647EE7206B012877D105F01000E8
:101EB000002873D006F010000028FAD000BF0020E0
:101EC000009020680068009020684068009000BF83
:101ED00000BF2068406900F0400000285FD0E06B40
:101EE000006840681FFA80F8B8F1000F55D0A08D47
:101EF000404552DDA4F82E80E06B8069202843D055
:101F000000BF00BF21680C3151E8001F21F4807030
:101F100021680C3141E80002002AF3D100BF00BF64
:101F200000BF2168143151E8001F21F00100216831
:101F3000143141E80002002AF3D100BF00BF00BF06
:101F40002168143151E8001F21F04000216814314C
:101F500041E80002002AF3D100BF202084F84200AB
:101F60000020206300BF00BF21680C3151E8001F32
:101F700021F0100021680C3141E80002002AF3D161
:101F800000BFE06BFEF7BEFA02206063A08DE28D19
:101F9000801A81B22046FFF7E9FE03E742E0A08DF8
:101FA000E18D401A1FFA80F8E08DD0B3B8F1000F30
:101FB00037D000BF00BF21680C3151E8001F21F469
:101FC000907021680C3141E80002002AF3D100BF73
:101FD00000BF00BF2168143151E8001F21F001004B
:101FE0002168143141E80002002AF3D100BF20200B
:101FF00084F842000020206300BF00BF21680C313C
:1020000051E8001F21F0100021680C3141E8000266
:10201000002AF3D100BF0220606341462046FFF74B
:10202000A5FEBFE605F0800030B106F0800018B1D3
:10203000204601F0A3F8B5E605F0400030B106F007
:10204000400018B1204600F06DFFABE600BFA9E6E6
:10205000A52E000810B504460CB9012010BDA069DA
:1020600000B100E000BF94F8410028B9002084F8D6
:102070004000204600F02AF8242084F8410020681F
:10208000C06820F400502168C860204600F0D8FFE6
:102090002068006920F49040216808612068406948
:1020A00020F02A00216848612068C06840F4005090
:1020B0002168C86000206064202084F8410084F812
:1020C00042000020606300BFC8E7000010B586B082
:1020D0000446002002900390049005901E49206859
:1020E000884236D100BF1D48806940F480401B49BA
:1020F00088610846806900F48040019000BF00BFFD
:1021000000BF0846806940F0040088610846806985
:1021100000F00400019000BF00BF481502900220AB
:1021200003900320059002A90D48FEF785FB4FF4AC
:102130008060029000200390049002A90848FEF7F6
:102140007BFB002205212520FFF760F92520FFF702
:102150004DF906B010BD00000038014000100240EB
:102160000008014070B504460D46164694F842003A
:1021700020280BD105B10EB9012070BD00202063CD
:1021800032462946204600F0D9FFF6E70220F4E760
:1021900070B5054623492868884200D070BD2248A2
:1021A00004782248007820B1012808D002282DD1D7
:1021B0001CE05B2C02D101201C4908702AE0312C64
:1021C0000ADB362C08DCA4F13001C8B202F02CFE88
:1021D00002201649087008E05B2C03D10120134946
:1021E000087002E000201149087013E05D2C03D153
:1021F00000200E49087008E05B2C03D101200B4938
:10220000087002E000200949087003E00020074937
:10221000087000BF00BF012203490548FFF7A2FF75
:1022200000BFBBE7003801405800002063000020D9
:10223000240200202DE9F84F04460E461746994621
:102240004FF0000A94F84100202850D106B117B988
:102250000120BDE8F88F00206064212084F841004F
:10226000FEF780FC8246A784E784A068B0F5805F13
:1022700004D1206910B90025B04602E035464FF080
:1022800000081EE05346002280212046CDF8009031
:1022900000F0A4FF20B1202084F841000320D8E7FB
:1022A00045B9B8F80000C0F308002168486008F19B
:1022B000020803E02878216848606D1CE08C401E0D
:1022C000E084E08C0028DDD15346002240212046E6
:1022D000CDF8009000F082FF20B1202084F841006A
:1022E0000320B6E7202084F841000020B1E7022057
:1022F000AFE7704700BFFEE7014608684069C0F3DA
:102300008020B0B16FF480600A68506100200863DB
:10231000202081F83D00002081F83E00086C40F04C
:102320000400086400BF002081F83C0000BF0120C9
:1023300070470020FCE700002DE9F84304460F46F3
:1023400015469946DDE908862068006840F48060FB
:10235000216808602068006840F480702168086087
:10236000434600224FF001112046009600F037F955
:1023700060B12068006800F48070B0F5807F02D101
:102380004FF4007020640320BDE8F88307F0FE00DE
:1023900021680861334642463E49204600F07EF9F6
:1023A00008B10120F0E700BF0020009020684069DC
:1023B000009020688069009000BF00BF324641460F
:1023C000204600F02DFA50B1206C042805D1206879
:1023D000006840F40070216808600120D4E7B9F17A
:1023E000010F03D1E8B22168086117E0C5F30720A7
:1023F0002168086132464146204600F011FA50B18A
:10240000206C042805D12068006840F40070216821
:1024100008600120B8E7E8B2216808613246414609
:10242000204600F0FDF950B1206C042805D1206849
:10243000006840F40070216808600120A4E720686B
:10244000006840F4807021680860434600224FF025
:1024500001112046009600F0C2F858B120680068CB
:1024600000F48070B0F5807F02D14FF400702064DA
:10247000032089E7F8B240F0010021680861334683
:1024800042460449204600F009F908B101207BE7E3
:10249000002079E7020001002DE9F8430446884650
:1024A00015469946DDE908672068006840F48070A9
:1024B00021680860334600224FF001112046009742
:1024C00000F08DF860B12068006800F48070B0F50D
:1024D000807F02D14FF4007020640320BDE8F883B0
:1024E00008F0FE00216808613B463246214920463B
:1024F00000F0D4F808B10120F0E700BF0020009000
:1025000020684069009020688069009000BF00BF8B
:102510003A463146204600F083F950B1206C042839
:1025200005D12068006840F400702168086001202F
:10253000D4E7B9F1010F03D1E8B22168086117E0CF
:10254000C5F30720216808613A463146204600F06D
:1025500067F950B1206C042805D12068006840F468
:102560000070216808600120B8E7E8B221680861BE
:102570000020B3E70200010070B504460D46164680
:1025800025E02046FFF7B8FE08B1012070BD681CA9
:10259000E8B1FEF7E7FA801BA84200D8BDB9206871
:1025A0004069C0F3800090B900202063202084F8A7
:1025B0003D00002084F83E00206C40F020002064A4
:1025C00000BF002084F83C0000BF0120DEE7206847
:1025D0004069C0F380000028D3D00020D6E72DE961
:1025E000F04104460D4617461E46DDF8188038E0D7
:1025F000701CA8B3FEF7B6FAA0EB0800B04200D8F2
:1026000076BBC5F3074001280AD120684069A9B20A
:102610000840A9B2884201D101200BE0002009E066
:1026200020688069A9B20840A9B2884201D101207E
:1026300000E00020B84214D100202063202084F85C
:102640003D00002084F83E00206C40F02000206413
:1026500000BF002084F83C0000BF0120BDE8F081ED
:10266000FFE7C5F3074001280AD120684069A9B2F5
:102670000840A9B2884201D101200BE0002009E006
:1026800020688069A9B20840A9B2884201D101201E
:1026900000E00020B842ABD00020DFE72DE9F04198
:1026A00004460D4616461F4658E020684069C0F3B0
:1026B0008020E8B12068006840F40070216808605C
:1026C0006FF480602168486100202063202084F836
:1026D0003D00002084F83E00206C40F0040020649F
:1026E00000BF002084F83C0000BF0120BDE8F0815D
:1026F000701C90B3FEF736FAC01BB04200D866BB20
:10270000C5F3074001280AD120684069A9B20840F2
:10271000A9B2884201D101200BE0002009E0206825
:102720008069A9B20840A9B2884201D1012000E025
:10273000002090B900202063202084F83D00002074
:1027400084F83E00206C40F02000206400BF002090
:1027500084F83C0000BF0120C8E7FFE7C5F307404D
:1027600001280AD120684069A9B20840A9B288426C
:1027700001D101200BE0002009E020688069A9B2A6
:102780000840A9B2884201D1012000E000200028C1
:102790008BD00020AAE770B504460D46164637E0F8
:1027A00020684069C0F30010A0B16FF010002168EC
:1027B000486100202063202084F83D00002084F838
:1027C0003E00206C206400BF002084F83C0000BF65
:1027D000012070BDFEF7C6F9801BA84200D8BDB924
:1027E00020684069C0F3801090B900202063202049
:1027F00084F83D00002084F83E00206C40F020006A
:10280000206400BF002084F83C0000BF0120E0E706
:1028100020684069C0F380100028C1D00020D8E7AC
:1028200070B504460D46164625E02046FFF764FDC8
:1028300008B1012070BD681CE8B1FEF793F9801B58
:10284000A84200D8BDB920684069C0F3C01090B953
:1028500000202063202084F83D00002084F83E0002
:10286000206C40F02000206400BF002084F83C0071
:1028700000BF0120DEE720684069C0F3C0100028D7
:10288000D3D00020D6E7000010B50122510309483B
:10289000FEF762F94FF4FA70FDF7BAFF00224FF429
:1028A00000510448FEF758F94FF4FA70FDF7B0FFF5
:1028B00010BD00000010014001F0ACFE00BF02F0AE
:1028C000CFFA0A2000F058FEF9E7000008B500BF73
:1028D0000E48406940F001000C49486108464069D3
:1028E00000F00100009000BF00BF00220521102071
:1028F000FEF78CFD1020FEF779FD00220521112046
:10290000FEF784FD1120FEF771FD08BD00100240A6
:1029100010B51C4A0121084600F054FF1A4908600E
:102920001A4A0021022000F04DFF19490860194A97
:102930000221102000F0B6FE17490860174A08214E
:10294000084600F0AFFE16490860164A00211648F6
:1029500000F09EFF15490860154A0021154800F057
:1029600097FF15490860154A0021154800F090FFAF
:1029700014490860144A0021144800F089FF1449E2
:10298000086010BDAC65000834000020BC6500087C
:10299000380000207C6500082C00002094650008A9
:1029A00030000020EC640008352C00081C000020DA
:1029B00010650008C70400082000002034650008E6
:1029C000B92800082400002058650008FD2B0008E5
:1029D0002800002000B585B00020019002900390EF
:1029E000049000BF3748806940F010003549886185
:1029F0000846806900F01000009000BF00BF00BFD3
:102A00000846806940F0200088610846806900F02F
:102A10002000009000BF00BF00BF0846806940F062
:102A2000040088610846806900F00400009000BF3F
:102A300000BF00BF0846806940F008008861084672
:102A4000806900F00800009000BF00BF00224FF432
:102A500000511D48FEF780F84FF40050019001200E
:102A60000290002003900220049001A91648FDF76F
:102A7000E3FE7020019000200290039001A913480A
:102A8000FDF7DAFE802001901148029000200390AB
:102A900001A90E48FDF7D0FE012001900C480290DC
:102AA0000020039001A90B48FDF7C6FE022001900B
:102AB00000200290039001A90648FDF7BDFE05B075
:102AC00000BD00000010024000100140000801405D
:102AD00000001110000C014010B50B480B490860B4
:102AE0000B484860002109488160C1604FF4804173
:102AF0000161002141618161C1610162FEF738F825
:102B000008B1FDF7FCFC10BD00540040000100209E
:102B1000A086010000B589B00020079008901C2114
:102B20006846FDF709FC4FF080402349086000200B
:102B300048600021204881604FF6FF71C16000218C
:102B400001618161FFF7C8F808B1FDF7D8FC0020EA
:102B50000790089007A91848FFF71AF808B1FDF781
:102B6000CEFC002000900190029004900022694663
:102B70001148FFF779F808B1FDF7C1FC0422694656
:102B80000D48FFF771F808B1FDF7B9FC0822694656
:102B90000948FFF769F808B1FDF7B1FC0C22694656
:102BA0000548FFF761F808B1FDF7A9FC0248FFF7F7
:102BB00031F809B000BD0000DC01002010B50B4861
:102BC0000B4908604FF416504860002108488160A6
:102BD000C16001610C21416100218161C161FFF788
:102BE00039FA08B1FDF78BFC10BD00000038014038
:102BF0002402002000BFFEE700BFFEE700BF02F096
:102C000047F90A2000F0B8FCF9E7000008B50849C8
:102C10000968C9084FF47A72B1FBF2F1414300919F
:102C200000BF00BF00994A1E00920029F9D108BDDB
:102C30007C00002000BFFFF727FE0A2000F09CFC6C
:102C4000F9E710B5FEF75CFB02F058FE012801D051
:102C500002F0AEF910BD00B58FB0282105A8FDF730
:102C60006BFB14216846FDF767FB022005900120ED
:102C7000099010200A9000200C9005A8FEF73CFD5A
:102C800008B1FDF73CFC0F2000900020019002905D
:102C90000390049000216846FEF70AFC08B1FDF796
:102CA0002EFC0FB000BD704710B502681C4B984257
:102CB00008D0B0F1804F05D01A4B984202D01A4B81
:102CC000984203D122F070024B681A43144B984289
:102CD00008D0B0F1804F05D0124B984202D0124B71
:102CE000984203D122F44072CB681A4322F0800349
:102CF0004C6943EA040202608B68C3620B6883621A
:102D0000074B984201D10B690363012343610369B7
:102D100003F001031BB1036923F00103036110BD3C
:102D2000002C0140000400400008004030B5026A59
:102D3000056A25F0010505624368846924F0700482
:102D400024F003040D682C4322F002028D682A430C
:102D50000D4DA84206D100BF22F00802CD682A43DB
:102D600022F00402084DA84207D123F4807323F413
:102D700000734D692B438D692B43436084614D681B
:102D80004563026230BD0000002C014030B5026A8C
:102D9000056A25F0100505624368846924F4E0445F
:102DA00024F440740D6844EA052422F020028D6862
:102DB00042EA05120E4DA84207D100BF22F0800260
:102DC000CD6842EA051222F04002094DA84209D11D
:102DD00023F4806323F400634D6943EA85038D691E
:102DE00043EA8503436084614D688563026230BDB8
:102DF000002C014030B5026A056A25F48075056231
:102E00004368C46924F0700424F003040D682C4363
:102E100022F400728D6842EA05220F4DA84207D1C4
:102E200000BF22F40062CD6842EA052222F48062EB
:102E3000094DA84209D123F4805323F400534D696E
:102E400043EA05138D6943EA05134360C4614D6885
:102E5000C563026230BD0000002C014030B5036A3A
:102E6000056A25F4805505624468C26922F4E0428F
:102E700022F440720D6842EA052223F400538D6863
:102E800043EA0533064DA84204D124F480444D6939
:102E900044EA85144460C2614D680564036230BD34
:102EA000002C014070B505466C6A0020E085E08486
:102EB0002046FEF75CFF70BD00BF00BF02680C3209
:102EC00052E8002F22F4907102680C3242E800139D
:102ED000002BF3D100BF00BF00BF0268143252E8DC
:102EE000002F22F001010268143242E80013002B87
:102EF000F3D100BF016B01290ED100BF00BF0268F2
:102F00000C3252E8002F22F0100102680C3242E825
:102F10000013002BF3D100BF202180F842100021C4
:102F20000163704710B504462068C06820F0400077
:102F30002168C860202084F841002046FFF7D9F9B5
:102F4000002010BDF8B5044694F84200222875D13F
:102F5000A068B0F5805F0CD1206950B90025A66A41
:102F600020684068C0F308003080A06A801CA0621E
:102F700015E0A56A0026A068B0F5805F03D0A068C0
:102F800028B9206918B920684068287004E02068D2
:102F9000406800F07F002870A06A401CA062E08DAD
:102FA000401E80B2E085002846D12068C06820F02D
:102FB00020002168C8602068C06820F48070216803
:102FC000C8602068406920F0010021684861202025
:102FD00084F8420000206063206B012826D1002085
:102FE000206300BF00BF21680C3151E8001F21F0B1
:102FF000100021680C3141E80002002AF3D100BF23
:103000002068006800F0100010280AD100BF0020DE
:10301000009020680068009020684068009000BF21
:1030200000BFA18D2046FEF7A1FE02E02046FFF77B
:10303000AFF80020F8BD01E00020FBE70220F9E72F
:1030400070B504462168096921F44051E2681143D2
:10305000226811612269A1681143626941EA02058F
:103060002168C96841F20C62914329432268D1600A
:103070002168496921F44071A269114322685161B4
:103080002D4A2168914202D1FEF7EEFA01E0FEF7E7
:10309000DBFA00EBC00101EB001162689200B1FBAA
:1030A000F2F100EBC00202EB001263689B00B2FB7E
:1030B000F3F26423B2FBF3F202EBC20303EB02125E
:1030C000A1EB8201322202EB01116422B1FBF2F189
:1030D00001F0F00100EBC00202EB001263689B00FC
:1030E000B2FBF3F26423B2FBF3F201EB021200EB4A
:1030F000C00101EB001163689B00B1FBF3F100EB31
:10310000C00303EB00136668B600B3FBF6F3642656
:10311000B3FBF6F303EBC30606EB0313A1EB83014A
:10312000322303EB01116423B1FBF3F101F00F0132
:1031300011442268916070BD0038014010B503460B
:1031400099629A85DA8500205864222083F842002B
:10315000186928B11868C06840F480701C68E06085
:103160001868406940F001001C6860611868C06818
:1031700040F020001C68E060002010BD014691F87E
:103180004100212828D18868B0F5805F0BD10869FB
:1031900048B90A6A1088C0F308000B685860086ACA
:1031A000801C086205E00B6A581C086218780B68DE
:1031B0005860C88C401E80B2C88458B90868C0687E
:1031C00020F080000B68D8600868C06840F04000BC
:1031D0000B68D860002070470220FCE72DE9F84317
:1031E00004460D4617469846089E31E0701C70B3A1
:1031F000FDF7B8FCA0EB0800B04200D816B90320D8
:10320000BDE8F8832068C06800F00400F8B1802DA4
:103210001ED0402D1CD020680068C0F3C000B0B1A3
:1032200000BF00200090206800680090206840687F
:10323000009000BF00BF2046FFF73EFE08206064FC
:1032400000BF002084F8400000BF0120D8E7FFE75E
:10325000206800682840A84201D1012000E0002039
:10326000B842C3D00020CBE710B50248FEF780FD7E
:1032700010BD00002402002000BFFEE7410008024C
:1032800018BF04200A0E18BF40F001004FF07F4223
:1032900032EA010108BF40F00200012808BF052002
:1032A0007047000002480068C0F302207047000029
:1032B0000CED00E010B5002804DB0A07130E054AE8
:1032C000135406E00A07140E034A00F00F031B1FF5
:1032D000D45410BD00E400E018ED00E0EFF30580E9
:1032E000704702F061BD6FF05E01080703F0BFB8E0
:1032F0002DE9F0474FF0684202EB40030C460546CB
:10330000B3F1654F3CBF02EB4102B2F1654F7CD295
:10331000C0F3C753C1F3C7529A1A1B2A06DD10F037
:10332000004F14BF76487748BDE8F08712F11A0FB6
:1033300017DA11F0004F06D010F0004F0CBF7248A2
:103340007248BDE8F0872146284602F095FD044604
:10335000FFF794FF042808BFFFF7C5FF2046BDE82C
:10336000F0874200B2EB410F25D910F0004F19BF92
:10337000674F684E684F694E224685F000441546F7
:103380000A4680F0004110460A1A5200B2F1807FCE
:1033900040D248406249DFF88CA110F0004F18D0AD
:1033A0004FF03F48384602F0BBFF074651463046D3
:1033B00002F0B6FF17E011F0004F04BF00263746B9
:1033C000E2D010F0004F19BF574F584E584F594E8A
:1033D000DAE74FF07C58384602F0E6FC07465146E3
:1033E000304602F0E1FC06464146284602F03AFE2D
:1033F000214602F0D9FC82462146404602F032FEC8
:10340000294602F0FBFE514600E037E002F034FDB1
:10341000044604E02146284602F02EFD04460146FB
:1034200002F020FE8046444902F01CFE434902F0AF
:10343000BBFC414602F016FE414902F0B5FC414694
:1034400002F010FE3F4902F0AFFC414602F00AFED6
:103450003D4902F0A9FC05464146204602F002FE25
:10346000294602F0FFFD314602F09EFC214602F0A3
:103470009BFC3946BDE8F04702F096BC4FF07F4216
:10348000B2EB400F28BFB2EB410F03D2BDE8F047CB
:10349000FFF727BF40EA01035B0008BF44F0FF418C
:1034A0000AD0B2EB400F08BFB2EB410F06D125F0B6
:1034B000804024F0804105460C4629E7B2EB400FDE
:1034C00012BF5FEA410245F0FF4004F000413FF4C3
:1034D0001FAF4A0092EA40033FF51AAF002AACBF83
:1034E0004FF09F464FF03E56314602F0BBFD054679
:1034F0003146204602F0B6FD04462846214607E73D
:10350000DB0FC9BFDB0FC93FDB0F4940DB0F49C0F1
:103510000000C9BF22AAFDB90000C93F22AAFD3997
:103520000060ED3EC30ACE37000049C022AA7DBA32
:103530000000494022AA7D3A2DAD65BD8FB8D53D2A
:103540000FB511BE61C84C3EA8AAAABEFDF7E4FEA5
:10355000FFF781FBFFF73EFAFFF7B8F9FFF7BCFA78
:10356000FFF7D8FAFFF72AFB00F016F8FFF7D0F9BB
:1035700000F028F800BFFEE770B50546FFF7AEFE85
:1035800010B16FF0050404E0002415B1284601F0E5
:10359000D9FA204670BD000010B5FFF79FFE10B1AC
:1035A0006FF0050409E00648006820B901200449CD
:1035B0000860002401E04FF0FF34204610BD0000F9
:1035C000D000002070B5FFF789FE10B16FF0050440
:1035D0001FE011480068012819D100BF801F002199
:1035E000002804DB0A07130E0C4A135406E00A07EE
:1035F000150E0B4A00F00F031B1FD55400BF00BF70
:1036000002200549086001F019FB002401E04FF099
:10361000FF34204670BD0000D000002000E400E030
:1036200018ED00E02DE9F84307460D4691461C468B
:103630003E464FF00008FFF751FEE0B10EB105B174
:1036400014B16FF0030828E0002000906A46294674
:10365000304602F017F8012802D06FF002081CE093
:103660000098D0B14FF080500D490860BFF34F8FE4
:10367000BFF36F8F11E006B115B96FF003080CE0CE
:1036800022462946304601F049FF012805D014B1F1
:103690006FF0010801E06FF002084046BDE8F883D2
:1036A00004ED00E02DE9F84305460E4614464FF0C0
:1036B0000009FFF713FE00283ED1002D3CD0002E5C
:1036C0003AD0471EBCB1A06858B1E068502808D372
:1036D000206930B105FB06F06169814201D3012701
:1036E0000AE0A06840B9E06830B9206920B9606993
:1036F00010B9002700E00027012F09D10020009019
:1037000031462846A368226901F0F9FC814606E0AB
:103710002FB900223146284601F0C4FC8146B9F198
:10372000000F09D014B1D4F8008001E04FF0000878
:103730004146484601F098F94846BDE8F883000044
:103740002DE9F84307460D4691461C463E464FF08C
:103750000008FFF7C3FDE8B10EB105B114B16FF079
:1037600003082AE00020009000236A4629463046DC
:1037700001F056FE012802D06FF002081DE000980B
:10378000D8B14FF080500E490860BFF34F8FBFF3A0
:103790006F8F12E006B115B96FF003080DE000233A
:1037A00022462946304601F067FD012805D014B1B4
:1037B0006FF0010801E06FF002084046BDE8F883B1
:1037C00004ED00E02DE9F84305460F4614464FF09E
:1037D0000008FFF783FD002857D1002D55D0AF42D8
:1037E00053D8461E64B1A06820B1E068502801D3C8
:1037F000012606E0A06820B9E06810B9002600E0C4
:103800000026701C002840D0012D23D1012E09D1A3
:1038100003200090002211460120A36801F06FFCF4
:10382000804605E003220021012001F03BFC804698
:10383000B8F1000F1CD0DFB100231A4619464046EC
:1038400001F01AFD012813D0404601F023F94FF092
:1038500000080DE0012E06D139462846A26801F085
:10386000EFFB804604E03946284601F0BBFB80466A
:10387000B8F1000F09D014B1D4F8009001E04FF076
:1038800000094946404601F0EFF84046BDE8F8839C
:103890002DE9FF4780468946144600200390FFF734
:1038A0001DFD00284ED1B8F1000F4BD08026182501
:1038B0008246471E44B3206808B1D4F800A0A0692E
:1038C00000B1A5692DB1382D03D8207900F0010091
:1038D00018B1002004B0BDE8F087606908B16069E4
:1038E0008608A06840B1E0685C2805D3206918B15B
:1038F000606908B1012708E0A06830B9E06820B924
:10390000206910B9002700E00027012F0CD12169A0
:10391000A0684B463246CDE90051029051464046E0
:1039200001F08EFF03900DE067B903A8B2B24B46D9
:103930005146CDE90050404601F050FF012801D02A
:10394000002003900398C5E72DE9F04105460E4697
:103950001648076816480068001D00F0F5FD681C51
:1039600038B936B112480168091D124800F046FE08
:103970001AE07C190E4800684460BC4207D20C482B
:103980000168091D0C48006800F01EFE0CE00848A4
:103990000168091D0948006800F016FE0848006823
:1039A000844201D206480460BDE8F0819400002002
:1039B000800000206C070020880000208400002088
:1039C000B000002010B5044600F064FF24480068F1
:1039D000401C234908602348006840B9214804601E
:1039E0000846006801280DD100F0FCF90AE01E48E5
:1039F000006838B91B480068C06AE16A884201D88B
:103A00001848046019480068401C184908600846B6
:103A1000006860641649E06A0968884202D914495E
:103A2000E06A0860E16A01EB8101124A02EB810061
:103A3000211D00F0E3FD00F057FF0B48006868B15E
:103A400008480068C06AE16A884207D24FF0805097
:103A500009490860BFF34F8FBFF36F8F10BD00009F
:103A600090000020800000209C000020AC0000207E
:103A700098000020BC02002004ED00E008B500F032
:103A800009FF12480068E8B9114800F08DFD11489F
:103A900000F08AFD0E48104908600E480F49086082
:103AA00000200F4B0F4A102100900A2001F027FB45
:103AB000064908600846006820B10BA10348006869
:103AC00000F0D2FF00F010FF08BD0000C40000208D
:103AD0008007002094070020BC000020C0000020C8
:103AE000A8070020F8070020546D72510000000064
:103AF00010B516E000F0CEFE0C48C068C468201D6A
:103B000000F022FD0A480068401E09490860094883
:103B10000068401E0749086000F0E6FE204600F0FD
:103B20005FF8044800680028E4D110BD5807002061
:103B3000900000208C00002070B504460D46206CDB
:103B400070B1216CE0680144E160D4E90210884260
:103B500001D32168E1602846226CE168FCF79FFBF5
:103B600070BD2DE9F04104460F4615464FF00008A0
:103B7000A66B206C48B9206800282CD1A06801F001
:103B800075FF80460020A06025E07DB93946226C93
:103B90006068FCF784FB216C606808446060D4E9CD
:103BA0000101884217D32068606014E03946226C16
:103BB000E068FCF774FB216CE068411AE160216861
:103BC000E068884203D2216CA068411AE160022DAE
:103BD00001D106B1761E701CA0634046BDE8F0819D
:103BE00010B5044694F8590030B9206B00F09AFEE5
:103BF000204600F097FE1AE094F85900012803D1FE
:103C0000204600F08FFE12E094F85900022801D1FE
:103C1000012000E0002050B900BF502080F311883F
:103C2000BFF34F8FBFF36F8F00BF00BFFEE710BD24
:103C30000146084A126812680AB9012200E000220F
:103C40000A600A6822B9034A1268D268106800E064
:103C500000207047BC00002030B54FF48053174857
:103C600000F007042CB1C01D20F00700134C041B0A
:103C70001B1B0246124C22600024114D6C60D018B0
:103C8000083820F007000F4C206000240D4D2D68EF
:103C90006C600C4D2D682C601146441A4C60094C28
:103CA00024680C60084D4C682C60084D4C682C60F2
:103CB0004FF00044064D2C6030BD0000500F002036
:103CC000D4000020DC000020E4000020E000002000
:103CD000F000002000BFFFF70BFF06480068012836
:103CE000F9D94FF0805004490860BFF34F8FBFF3FC
:103CF0006F8FF0E7BC02002004ED00E02DE9F041F9
:103D000006460D4617469846069C0DB9246000E00D
:103D10002760E66325640121204601F061FA84F8FA
:103D20004C80BDE8F0812DE9F05F82460E4690465A
:103D30009B460A9F0C9C4FEA8801A522206BFCF74A
:103D4000F3FAA8F10100216B01EB800929F00709C2
:103D500009F0070008B9012000E0002050B900BFB9
:103D6000502080F31188BFF34F8FBFF36F8F00BFD8
:103D700000BFFEE786B1002507E0715D04F1340065
:103D80004155705D00B902E06D1C102DF5D300BFE8
:103D900000214320015502E0002084F83400382F30
:103DA00000D33727E762E76400202065201D00F07C
:103DB00008FC04F1180000F004FC2461C7F138008D
:103DC000A06164620020606584F858005A4651463C
:103DD000484600F071FB20600B9808B10B98046016
:103DE000BDE8F09F10B5002407E004EB84010F4A02
:103DF00002EB810000F0D8FB641C382CF5D30C4892
:103E000000F0D2FB0B4800F0CFFB0B4800F0CCFBDE
:103E10000A4800F0C9FB0A4800F0C6FB04480949FB
:103E2000086004480849086010BD0000BC0200207A
:103E30001C070020300700204407002058070020FE
:103E40006C070020840000208800002010B5014687
:103E5000164800E0006803688B42FBD302464368C3
:103E600013448B4204D143684C68234443600146A9
:103E70000A464B6813440468A34211D10C4C0368F2
:103E80002468A34208D04B680468646823444B60EC
:103E900003681B680B6005E0054B1B680B6001E0C5
:103EA00003680B60884200D0016010BDD400002080
:103EB000DC0000202DE9F04104460D4616461F4661
:103EC0004FF0000865602461B5420CD8F01BA16971
:103ED000884202D34FF0010811E0211D0948006813
:103EE00000F072FB0BE0BE4204D2BD4202D34FF0A1
:103EF000010804E0211D0448006800F065FB40460D
:103F0000BDE8F081C0000020BC00002070B505466F
:103F100000F0C0FCA86B08B9012400E0002400F008
:103F2000E3FC204670BD70B5054600F0B3FCA86BFD
:103F3000E96B884201D1012400E0002400F0D4FCA8
:103F4000204670BDF8B505460F461A480068C0689F
:103F5000C468201D00F0F8FA94F8280000F004006E
:103F6000E8B1A06941192B463A462046FFF7A2FF67
:103F7000D8B1002003462A4601460090204601F0B1
:103F8000D1FE064656B900BF502080F31188BFF31A
:103F90004F8FBFF36F8F00BF00BFFEE705E094F8BF
:103FA000280020F0010084F828002046216A884774
:103FB000F8BD0000BC000020F0B587B0A0E0039879
:103FC000002811DA04AE56B900BF502080F31188E2
:103FD000BFF34F8FBFF36F8F00BF00BFFEE7D6E97F
:103FE0000020B168904700BF03980028E6DB059CDD
:103FF000606908B9012000E0002010B9201D00F020
:10400000A3FA02A800F0DEF8054603980A2875D244
:10401000DFE800F009050739416306083A4200BFAE
:1040200000BF00BF00BF94F8280040F0010084F8F2
:1040300028000498A269811803462A462046FFF703
:1040400039FFF8B12046216A884794F8280000F02B
:104050000400B8B1002000900498A1694218002320
:104060001946204601F05EFE074657B900BF5020B2
:1040700080F31188BFF34F8FBFF36F8F00BF00BF76
:10408000FEE700BF3BE000BF94F8280020F00100ED
:1040900084F8280033E000BF94F8280040F00100C5
:1040A00084F828000498A061A06908B1012000E00C
:1040B000002050B900BF502080F31188BFF34F8F0C
:1040C000BFF36F8F00BF00BFFEE7A06941192B4609
:1040D0002A462046FFF7EEFE11E094F8280000F093
:1040E000020018B9204600F01DFC05E094F82800F5
:1040F00020F0010084F8280001E0FFE700BF00BFC6
:10410000002203A90448006801F008FA00287FF49F
:1041100056AF07B0F0BD0000C4000020F8B505465A
:104120000C4600F0E7FD684600F04CF806460098A3
:1041300020BB44B9B54206D801F036FD31462846C9
:10414000FFF700FF1CE03CB10E480068006808B9AA
:10415000012000E000200446A91B22460A4800680E
:1041600000F0CAFC01F020FD50B94FF08050074923
:104170000860BFF34F8FBFF36F8F01E001F014FDB4
:10418000F8BD0000C0000020C400002004ED00E0E5
:104190000A490968096809B9012100E0002121B133
:1041A0004FF0FF31064A116006E004490968C9680A
:1041B000C868034A4168116070470000840000200D
:1041C000B000002070B5044601F0A8FB0546074882
:1041D0000068854204D200F00BF80120206001E065
:1041E0000020206001480560284670BDCC000020FA
:1041F0002DE9F84334E025480068C0680568234885
:104200000068C068C468201D00F09EF92046216A3D
:10421000884794F8280000F0040008B3A069461904
:10422000AE4207D966602461211D1848006800F07D
:10423000CBF915E0002003462A46014600902046AF
:1042400001F070FD074657B900BF502080F3118878
:10425000BFF34F8FBFF36F8F00BF00BFFEE700BFFC
:104260000A480068006808B9012000E00020002822
:10427000C1D00648D0F800800548006803490860AE
:104280000348C0F80080BDE8F8830000BC000020AF
:10429000C00000200E480068401C08B9012000E062
:1042A000002050B900BF502080F31188BFF34F8F1A
:1042B000BFF36F8F00BF00BFFEE700BF502080F349
:1042C0001188BFF34F8FBFF36F8F00BF00BFFEE7B2
:1042D000F400002008B500BF6846FFF7A9FC0446BB
:1042E00020460099FFF71AFFFFF766FEF4E770B566
:1042F000044600F0CFFA94F9455010E0606A08B91E
:10430000012000E0002038B904F1240001F000FC95
:1043100018B100F051FC00E003E0681E45B2002D2A
:10432000ECDC00BFFF2084F8450000F0DDFA00F06F
:10433000B1FA94F9445010E0206908B9012000E076
:10434000002048B904F1100001F0E2FB08B100F0D0
:1043500033FC681E45B200E001E0002DECDC00BF3C
:10436000FF2084F8440000F0BFFA70BD2DE9F04151
:1043700004464FF0000800F0BDFC4948006808B949
:10438000FFF76AFC474800682040002870D1D4B18C
:10439000083404F00700B0B104F00700C0F10800D1
:1043A000044404F0070008B9012000E0002050B9DF
:1043B00000BF502080F31188BFF34F8FBFF36F8F82
:1043C00000BF00BFFEE7002C52D03748006884428F
:1043D0004ED8364E3046056801E02E462D68686896
:1043E000A04202D228680028F7D12D4800688542F3
:1043F0003ED0306800F10808286830606868001B0B
:10440000102819D92F1907F0070008B9012000E07A
:10441000002050B900BF502080F31188BFF34F8FA8
:10442000BFF36F8F00BF00BFFEE76868001B7860B6
:104430006C603846FFF70AFD1B4968680968081A6E
:10444000194908600846006819490968884203D27A
:1044500015480068164908601249686809680843E9
:1044600068600020286013480068401C11490860FB
:1044700001F09AFB08F0070008B9012000E00020D5
:1044800050B900BF502080F31188BFF34F8FBFF3A6
:104490006F8F00BF00BFFEE74046BDE8F08100001F
:1044A000DC000020F0000020E0000020D40000200C
:1044B000E4000020E8000020001F4FF0807303603C
:1044C000001F21F001030360001F034B0360143839
:1044D00002602038704700009542000870B505461C
:1044E00001F096FE044620F00040C0F1FF40C00FEE
:1044F00008D025F00040C0F1FF40C00F04BF0120EC
:10450000FBF749FF204670BD0C4800780C4A127832
:10451000904201D1002070470A48084A1278815C15
:10452000064A1278501CC21700EB5272D210A0EB50
:10453000C202024B1A700846EDE70000620000203C
:10454000610000205900002001460A69D1E90130CC
:104550009860D1E9010358605068884201D18868A9
:104560005060002008611068401E1060106870479D
:10457000034B0360034B0B60802313607047000004
:1045800098080020F4080020034B0360034B0B60E5
:104590004FF4807313607047F40A0020500B002022
:1045A00010B500F00FFC10BD00F1080141604FF0A4
:1045B000FF31816000F10801C160016100210160EB
:1045C000704700210161704710B502460B685C1C02
:1045D0000CB9106907E002F1080000E04068446887
:1045E00024689C42FAD944684C604C68A160886099
:1045F00041600A611468641C146010BD42684A601E
:1046000093688B60936859609160086103685B1CD4
:104610000360704710B500216B2000F027F90721D7
:10462000192000F023F900211A2000F01FF91821A9
:104630001B2000F01BF900211C2000F017F910BD11
:1046400010B586B0044664200E21214A0123CDE92D
:10465000002102903B22D0211E48FCF771FB1C4830
:1046600040781B49097840EA012000B220801848B0
:10467000C0781749897840EA012000B26080144868
:1046800040791349097940EA012000B2A08010481E
:10469000407A0F49097A40EA012000B2E0800C48D4
:1046A000C07A0B49897A40EA012000B2208108488B
:1046B000407B0749097B40EA012000B260812088E5
:1046C000059060880490A0880390012006B010BD7A
:1046D0006C020020000100202DE9F04F8BB0044651
:1046E0000D461746B4F9000001F0A4FC4FF08D41CF
:1046F000069001F0C1FB0A90B4F9020001F09AFCA7
:104700004FF08D41069001F0B7FB8046B4F90400EC
:1047100001F090FC4FF08D41069001F0ADFB814619
:10472000B4F9060001F086FC4A49069001F0A4FBAA
:104730000990B4F9080001F07DFC4649069001F0AB
:104740009BFB0890B4F90A0001F074FC4149069003
:1047500001F092FB079049464046FEF7C9FD3E49ED
:10476000069001F07FFC82464946484601F07AFCFB
:1047700041460290404601F075FC0190029901F01B
:1047800013FB0390FFF7AAFE05900A9880F0004003
:1047900004900599FEF7ACFD2F49069001F062FCEC
:1047A00083462E48007840B12D48C0F800A02D481F
:1047B000C0F800B00020294908703946099801F076
:1047C00051FC069026480168069801F0EDFA24494C
:1047D00008603946089801F045FC069021480168B8
:1047E000069801F0E1FA1F4908601F4E31464FF06C
:1047F0007E5001F095FD5146049001F033FC069087
:1048000017480168304601F02DFC0590069901F02B
:10481000CBFA1349086031464FF07E5001F080FD1D
:104820005946049001F01EFC06900E48016830467F
:1048300001F018FC0590069901F0B6FA09490860E4
:104840000748006828600846006868600BB0BDE84B
:10485000F08F000033338341333365426C00002016
:10486000640000206800002048E17A3F13B584B05E
:1048700004464FF0FF30012105AA0B46CDE9002187
:1048800002902246D0210248FCF714FC06B010BD6D
:104890000001002000BF502080F31188BFF34F8F2C
:1048A000BFF36F8F00BF0E480068401C0C490860C2
:1048B00008460068012812D10A480068C0B208B949
:1048C000012000E0002050B900BF502080F3118883
:1048D000BFF34F8FBFF36F8F00BF00BFFEE770477E
:1048E000F400002004ED00E00D48006850B900BF5E
:1048F000502080F31188BFF34F8FBFF36F8F00BF3D
:1049000000BFFEE706480068401E054908600846EB
:10491000006820B9002080F3118800BF00BF7047F5
:10492000F400002070B506463546002E44D0083D00
:104930002C46224960680968084008B1012000E05F
:10494000002050B900BF502080F31188BFF34F8F73
:10495000BFF36F8F00BF00BFFEE7206808B90120DA
:1049600000E0002050B900BF502080F31188BFF351
:104970004F8FBFF36F8F00BF00BFFEE70F49606826
:1049800009680840C0B12068B0B90C49606809687E
:104990008843606000F0AEF909496068096808441E
:1049A000074908602046FFF751FA06480068401C96
:1049B0000449086001F0F8F870BD0000F000002024
:1049C000E0000020EC00002000204FF0E021086112
:1049D0008861064800684FF47A71B0FBF1F0401E20
:1049E0004FF0E02148610720086170477C000020FB
:1049F00070B5FBF711FC0446102C16D304F1E0202F
:104A000090F8F05315480078854201DB012000E062
:104A1000002050B900BF502080F31188BFF34F8FA2
:104A2000BFF36F8F00BF00BFFEE70D48006800F4C2
:104A3000E0600C490968884201D8012000E00020AC
:104A400050B900BF502080F31188BFF34F8FBFF3E0
:104A50006F8F00BF00BFFEE770BD0000F8000020B0
:104A60000CED00E0FC000020024600200BE0084BAB
:104A700053F8303033B9064B43F8301003EBC00322
:104A80005A6002E0401C0828F1D300BF70470000C4
:104A90007C02002070B50446254655B900BF502061
:104AA00080F31188BFF34F8FBFF36F8F00BF00BF3C
:104AB000FEE7284600F008F895F8460010B92846A9
:104AC000FFF730FF70BD0000014600200EE0094AEC
:104AD00002EBC00252688A4207D10022054B43F81C
:104AE000302003EBC0035A6002E0401C0828EED3DC
:104AF00000BF70477C0200202DE9F04105460E46BC
:104B000017462C46FFF7C6FE94F94400401C10B926
:104B1000002084F8440094F94500401C10B900209E
:104B200084F84500FFF7E0FEA06B28B93A4631460D
:104B300004F1240000F062F82046FFF7D8FBBDE83E
:104B4000F081000070B504460025D4B11248006819
:104B500008B9012000E0002050B900BF502080F3C8
:104B60001188BFF34F8FBFF36F8F00BF00BFFEE709
:104B700000F0C0F800212046FEF7E6FE01F014F830
:104B800005463DB94FF0805004490860BFF34F8F90
:104B9000BFF36F8F70BD0000B800002004ED00E08F
:104BA00003490968016003490968416070470000D2
:104BB000A8000020940000200120014908607047EF
:104BC000A400002070B504460D4654B900BF502023
:104BD00080F31188BFF34F8FBFF36F8F00BF00BF0B
:104BE000FEE70548016818312046FFF7EDFC01217A
:104BF0002846FEF7A9FE70BD8000002070B505466E
:104C00000E46144655B900BF502080F31188BFF3FB
:104C10004F8FBFF36F8F00BF00BFFEE706480168EC
:104C200018312846FFF7EAFC0CB14FF0FF36214659
:104C30003046FEF789FE70BD8000002010B586B0BA
:104C400000200590049003AA04A905A8FFF790FC92
:104C50000022DDE904101346CDE9002102901EA1D7
:104C60001F48039A00F0ECFD1E49086008460068E2
:104C700008B1012400E00024012C02D101F016F853
:104C80000446012C15D100BF502080F31188BFF3DA
:104C90004F8FBFF36F8F00BF4FF0FF301249086096
:104CA00001201249086000201149086000F004F951
:104CB00010E0601C08B1012000E0002050B900BFE6
:104CC000502080F31188BFF34F8FBFF36F8F00BF69
:104CD00000BFFEE706B010BD49444C45000000008F
:104CE000D53C0008B4000020B00000209C0000204B
:104CF0009400002002480068401C01490860704789
:104D0000B80000201E48006818B101201D49086045
:104D100034E000201B4908601B4801680CE051B9D1
:104D200000BF502080F31188BFF34F8FBFF36F8F08
:104D300000BF00BFFEE7491E01EB8100134A52F895
:104D4000200008B9012000E000200028E7D101EB95
:104D500081020E4B03EB820042685268426000F110
:104D600008024368934202D1426852684260426836
:104D7000D268074B1A600448016000BF704700000A
:104D8000B8000020A400002098000020BC020020F1
:104D90008000002010B50020054908700549087002
:104DA00005490870012205490548FDF7DBF910BDEA
:104DB00063000020610000206200002058000020F5
:104DC0002402002070B5FFF79FFB054605B970BDB2
:104DD000012D06DB042D04DC681E114951F820402A
:104DE00006E0052D02D10E48046901E00C48446933
:104DF0002046FBF735FA86B264233246214609483D
:104E0000FDF718FA06498869FBF72AFA86B20448C2
:104E10006423324681690348FDF70CFA00BFD6E7E8
:104E20003C0000202402002001460A4B1B78581C3D
:104E3000C31700EB5373DB10A0EBC303DAB20648D1
:104E40000078824205D00548024B1B78C1540148C6
:104E500002707047610000206200002059000020AD
:104E600010B588B0084C02A8FFF7EAFB2246694655
:104E700002A8FFF731FC00231A4669460348006880
:104E8000FEF75EFC08B010BD0AD7233C30000020BE
:104E90001FB54FF0FF33002202A906480068FEF755
:104EA000C1FB039801F0AAF80190029801F0A6F85E
:104EB00000901FBD300000201CB53849084600781E
:104EC0000190FF200A4610700846007800909DF877
:104ED000000000F0F0009DF80020904201D1012078
:104EE00000E0002050B900BF502080F31188BFF3CC
:104EF0004F8FBFF36F8F00BF00BFFEE79DF800002C
:104F000000F05000264A10700720264A106009E081
:104F100024480068401E234A10609DF800004006A7
:104F2000000E00909DF8000000F080008028EFD077
:104F30001C480068C0F10700042801D1012000E0EE
:104F4000002050B900BF502080F31188BFF34F8F6D
:104F5000BFF36F8F00BF00BFFEE71248006800027A
:104F6000104A10601046008800F4E06010600B4AA0
:104F7000019810700C48006840F470000A490860FD
:104F80000846006840F070400860FFF71DFD0020F3
:104F900006490860FBF70AF900201CBD00E400E0A8
:104FA000F8000020FC00002020ED00E0F4000020CC
:104FB00010B500BF502080F31188BFF34F8FBFF3AF
:104FC0006F8F00BF00F0B0FC18B14FF08050044963
:104FD000086000BF002080F3118800BF10BD0000F2
:104FE00004ED00E070B505460E460DB1012000E06D
:104FF000002050B900BF502080F31188BFF34F8FBD
:10500000BFF36F8F00BF00BFFEE7AE4201D80120A3
:1050100000E0002050B900BF502080F31188BFF39A
:105020004F8FBFF36F8F00BF00BFFEE7022200214A
:10503000284600F037F8044604B1A663204670BD48
:10504000F8B505460E4617460DB1012000E00020D8
:1050500050B900BF502080F31188BFF34F8FBFF3CA
:105060006F8F00BF00BFFEE7AE4201D8012000E015
:10507000002050B900BF502080F31188BFF34F8F3C
:10508000BFF36F8F00BF00BFFEE702203B46002248
:1050900011460090284600F032F8044604B1A66399
:1050A0002046F8BD2DE9F84305460E4617460DB1DA
:1050B000012000E0002050B900BF502080F311888B
:1050C000BFF34F8FBFF36F8F00BF00BFFEE705FB3D
:1050D00006F808F15000FFF749F9044664B1A1460B
:1050E00009F15009002084F846003B464A46314603
:1050F00028460094FEF702FE2046BDE8F8832DE91D
:10510000F84380460E4617461D46DDF82090B8F15C
:10511000000F01D0012000E0002050B900BF502056
:1051200080F31188BFF34F8FBFF36F8F00BF00BFB5
:10513000FEE70DB1012000E0002050B900BF502073
:1051400080F31188BFF34F8FBFF36F8F00BF00BF95
:10515000FEE707B10EB1012000E0002050B900BF0A
:10516000502080F31188BFF34F8FBFF36F8F00BFC4
:1051700000BFFEE707B90EB9012000E0002050B9DA
:1051800000BF502080F31188BFF34F8FBFF36F8FA4
:1051900000BF00BFFEE7502000900098502801D1CA
:1051A000012000E0002050B900BF502080F311889A
:1051B000BFF34F8FBFF36F8F00BF00BFFEE700BF8D
:1051C0002C464CB1012084F846004B463A46314605
:1051D00040460094FEF792FD2046BDE8F8830000AB
:1051E00070B505460E462C4654B900BF502080F3DA
:1051F0001188BFF34F8FBFF36F8F00BF00BFFEE773
:10520000FFF748FBD4E90F12206801FB0200A06001
:105210000020A06320686060E06B401E226C216863
:1052200000FB0211E160FF2084F8440084F845008F
:105230009EB9206908B9012000E00020A8B904F156
:10524000100000F065FC80B14FF080500949086003
:10525000BFF34F8FBFF36F8F07E004F11000FFF72C
:10526000A3F904F12400FFF79FF9FFF73DFB0120AC
:1052700070BD000004ED00E02DE9FF4383B0064659
:1052800088461D464FF00009344654B900BF5020EF
:1052900080F31188BFF34F8FBFF36F8F00BF00BF44
:1052A000FEE7B8F1000F01D1206C08B9012000E041
:1052B000002050B900BF502080F31188BFF34F8FFA
:1052C000BFF36F8F00BF00BFFEE7022D02D1E06B7E
:1052D000012801D1012000E0002050B900BF50207A
:1052E00080F31188BFF34F8FBFF36F8F00BF00BFF4
:1052F000FEE700F003FB08B9059808B9012000E0BB
:10530000002050B900BF502080F31188BFF34F8FA9
:10531000BFF36F8F00BF00BFFEE700BFFFF7BAFA11
:10532000A06BE16B884201D3022D28D12A46414669
:105330002046FEF716FC0746606A08B9012000E027
:10534000002068B904F1240000F0E2FB88B14FF0BE
:10535000805032490860BFF34F8FBFF36F8F08E072
:105360003FB14FF080502D490860BFF34F8FBFF31E
:105370006F8FFFF7B9FA012007B0BDE8F0830598F9
:1053800018B9FFF7B1FA0020F6E7B9F1000F04D120
:1053900001A8FFF705FC4FF00109FFF7A5FAFFF799
:1053A000A9FCFFF777FA94F94400401C10B90020DB
:1053B00084F8440094F94500401C10B9002084F89A
:1053C0004500FFF791FA05A901A800F0C1F9F0B96D
:1053D0002046FEF7A8FDA0B104F110000599FFF7E3
:1053E000F1FB2046FEF783FF00F0DEFB002895D19D
:1053F0004FF0805009490860BFF34F8FBFF36F8FA4
:105400008CE72046FEF773FF00F0CEFB86E72046D0
:10541000FEF76DFF00F0C8FB0020ADE704ED00E0F3
:105420002DE9F84F07468A4690461E463C4654B939
:1054300000BF502080F31188BFF34F8FBFF36F8FF1
:1054400000BF00BFFEE7BAF1000F01D1206C08B920
:10545000012000E0002050B900BF502080F31188E7
:10546000BFF34F8FBFF36F8F00BF00BFFEE7022E69
:1054700002D1E06B012801D1012000E0002050B9E9
:1054800000BF502080F31188BFF34F8FBFF36F8FA1
:1054900000BF00BFFEE7FFF7ABFA00BF5021EFF3FC
:1054A000118081F31188BFF34F8FBFF36F8F00BF5F
:1054B0000546A06BE16B884201D3022E25D194F9F9
:1054C00045B0A06B0090324651462046FEF749FB9E
:1054D0000BF1010088B9606A08B9012000E00020E2
:1054E00050B904F1240000F013FB28B1B8F1000F0B
:1054F00002D00120C8F8000004E00BF1010040B226
:1055000084F845004FF0010901E04FF0000900BFA9
:1055100085F3118800BF4846BDE8F88F2DE9F741B3
:1055200083B005460E464FF000082C4654B900BF24
:10553000502080F31188BFF34F8FBFF36F8F00BFF0
:1055400000BFFEE70EB9206C08B9012000E0002082
:1055500050B900BF502080F31188BFF34F8FBFF3C5
:105560006F8F00BF00BFFEE700F0C8F908B90598CB
:1055700008B9012000E0002050B900BF502080F39E
:105580001188BFF34F8FBFF36F8F00BF00BFFEE7DF
:1055900000BFFFF77FF9A76BF7B131462046FEF752
:1055A000CBFA781EA063206908B9012000E0002032
:1055B00060B904F1100000F0ABFA38B14FF0805040
:1055C0002F490860BFF34F8FBFF36F8FFFF78CF940
:1055D000012006B0BDE8F081059818B9FFF784F9FD
:1055E0000020F6E7B8F1000F04D101A8FFF7D8FAC0
:1055F0004FF00108FFF778F9FFF77CFBFFF74AF956
:1056000094F94400401C10B9002084F8440094F937
:105610004500401C10B9002084F84500FFF764F9EC
:1056200005A901A800F094F8F0B92046FEF76EFC39
:10563000A0B104F124000599FFF7C4FA2046FEF753
:1056400056FE00F0B1FA0028A3D14FF080500C496B
:105650000860BFF34F8FBFF36F8F9AE72046FEF7C6
:1056600046FE00F0A1FA94E72046FEF740FE00F067
:105670009BFA2046FEF74AFC00288AD00020A8E7C3
:1056800004ED00E02DE9F05F0646894617463446F2
:1056900054B900BF502080F31188BFF34F8FBFF380
:1056A0006F8F00BF00BFFEE7B9F1000F01D1206C82
:1056B00008B9012000E0002050B900BF502080F35D
:1056C0001188BFF34F8FBFF36F8F00BF00BFFEE79E
:1056D000FFF78EF900BF5021EFF3118081F311889D
:1056E000BFF34F8FBFF36F8F00BF0546D4F838A0CC
:1056F000BAF1000F22D094F944B049462046FEF793
:105700001BFAAAF10100A0630BF1010070B9206936
:1057100008B9012000E0002068B904F1100000F091
:10572000F7F940B13FB10120386004E00BF101000E
:1057300040B284F844004FF0010801E04FF0000847
:1057400000BF85F3118800BF4046BDE8F09F000010
:1057500070B505460C4655B900BF502080F311883E
:10576000BFF34F8FBFF36F8F00BF00BFFEE754B989
:1057700000BF502080F31188BFF34F8FBFF36F8FAE
:1057800000BF00BFFEE7FFF785F8124802686868AF
:10579000131A2068401C08B9002617E00E49286833
:1057A0000968884204D06868904201D801260DE05B
:1057B0002068984207D92068C01A20602846FFF761
:1057C000EFF9002602E0002020600126FFF78CF8A8
:1057D000304670BD94000020A80000202DE9FF4F46
:1057E00085B0804689461746DDE912ABB800FEF762
:1057F000BDFD064656B15C20FEF7B8FD04460CB16F
:10580000266304E03046FFF78DF800E000248CB1F9
:10581000002084F85900CDE900ABCDE902403A46BA
:1058200049464046089BFEF77EFA2046FEF7CAF836
:10583000012501E04FF0FF35284609B0BDE8F08FA3
:105840002DE9F04F85B00746884691469A46DDE936
:105850000EB6109C0EB1012000E0002050B900BF30
:10586000502080F31188BFF34F8FBFF36F8F00BFBD
:1058700000BFFEE70CB1012000E0002050B900BFDE
:10588000502080F31188BFF34F8FBFF36F8F00BF9D
:1058900000BFFEE75C20039003985C2801D1012043
:1058A00000E0002050B900BF502080F31188BFF302
:1058B0004F8FBFF36F8F00BF00BFFEE700BFB4B1D3
:1058C000AEB125462C462E63022085F859000020F3
:1058D00004A953464A46CDE900B1CDE902504146FC
:1058E0003846FEF720FA2846FEF76CF801E0002063
:1058F0000490049805B0BDE8F08F000005490968E0
:1059000009B9012005E00449096809B9022000E04D
:10591000002070479C000020B80000200149086862
:1059200070470000940000202DE9F0414FF000087E
:105930004348006800287BD142480068451C414824
:10594000056015BB40480068006808B9012000E008
:10595000002050B900BF502080F31188BFF34F8F53
:10596000BFF36F8F00BF00BFFEE7374807683748B7
:105970000068354908603548076035480068401CB4
:1059800033490860FEF704FC00BF324800688542D6
:105990003BD300BF2C480068006808B9012000E034
:1059A000002020B14FF0FF302A4908602CE0264843
:1059B0000068C068C4686668B54202D225480660BF
:1059C00022E0201DFEF7C0FDA06A18B104F1180006
:1059D000FEF7BAFD2049E06A0968884202D91E49EB
:1059E000E06A0860E16A01EB81011C4A02EB810078
:1059F000211DFEF703FE1A49E06A0968C96A884258
:105A0000C8D34FF00108C5E700BF15480068C06A59
:105A100000EB8000114951F82000012801D94FF016
:105A200001081048006808B14FF0010805E0FFE7E1
:105A30000D480068401C0C4908604046BDE8F081F4
:105A4000B80000209400002084000020880000207E
:105A5000A8000020B000002098000020BC02002018
:105A600080000020A4000020A000002070B50546A2
:105A70002C460026002D43D022480068844201D1E4
:105A8000012000E0002050B900BF502080F31188B1
:105A9000BFF34F8FBFF36F8F00BF00BFFEE7206DD6
:105AA00050B900BF502080F31188BFF34F8FBFF370
:105AB0006F8F00BF00BFFEE7206D401E2065E16CC8
:105AC000E06A88421CD0206DD0B9201DFEF73CFD55
:105AD000E06CE062E06AC0F13800A0610A49E06A67
